{
  "contractName": "Voting",
  "abi": [
    {
      "inputs": [],
      "stateMutability": "nonpayable",
      "type": "constructor"
    },
    {
      "anonymous": false,
      "inputs": [
        {
          "indexed": true,
          "internalType": "uint256",
          "name": "candidateId",
          "type": "uint256"
        },
        {
          "indexed": false,
          "internalType": "string",
          "name": "age",
          "type": "string"
        },
        {
          "indexed": false,
          "internalType": "string",
          "name": "name",
          "type": "string"
        },
        {
          "indexed": false,
          "internalType": "string",
          "name": "image",
          "type": "string"
        },
        {
          "indexed": false,
          "internalType": "uint256",
          "name": "voteCount",
          "type": "uint256"
        },
        {
          "indexed": false,
          "internalType": "address",
          "name": "_address",
          "type": "address"
        },
        {
          "indexed": false,
          "internalType": "string",
          "name": "ipfs",
          "type": "string"
        }
      ],
      "name": "CreateCandidate",
      "type": "event"
    },
    {
      "anonymous": false,
      "inputs": [
        {
          "indexed": true,
          "internalType": "uint256",
          "name": "voter_voterId",
          "type": "uint256"
        },
        {
          "indexed": false,
          "internalType": "string",
          "name": "voter_name",
          "type": "string"
        },
        {
          "indexed": false,
          "internalType": "string",
          "name": "voter_image",
          "type": "string"
        },
        {
          "indexed": false,
          "internalType": "address",
          "name": "voter_address",
          "type": "address"
        },
        {
          "indexed": false,
          "internalType": "uint256",
          "name": "voter_age",
          "type": "uint256"
        },
        {
          "indexed": false,
          "internalType": "uint256",
          "name": "voter_allowed",
          "type": "uint256"
        },
        {
          "indexed": false,
          "internalType": "bool",
          "name": "voter_voted",
          "type": "bool"
        },
        {
          "indexed": false,
          "internalType": "uint256",
          "name": "voter_vote",
          "type": "uint256"
        },
        {
          "indexed": false,
          "internalType": "string",
          "name": "voter_ipfs",
          "type": "string"
        }
      ],
      "name": "CreatedVoter",
      "type": "event"
    },
    {
      "inputs": [],
      "name": "_candidateId",
      "outputs": [
        {
          "internalType": "uint256",
          "name": "_value",
          "type": "uint256"
        }
      ],
      "stateMutability": "view",
      "type": "function",
      "constant": true
    },
    {
      "inputs": [],
      "name": "_voterId",
      "outputs": [
        {
          "internalType": "uint256",
          "name": "_value",
          "type": "uint256"
        }
      ],
      "stateMutability": "view",
      "type": "function",
      "constant": true
    },
    {
      "inputs": [],
      "name": "admin",
      "outputs": [
        {
          "internalType": "address",
          "name": "",
          "type": "address"
        }
      ],
      "stateMutability": "view",
      "type": "function",
      "constant": true
    },
    {
      "inputs": [
        {
          "internalType": "uint256",
          "name": "",
          "type": "uint256"
        }
      ],
      "name": "candidateAddress",
      "outputs": [
        {
          "internalType": "address",
          "name": "",
          "type": "address"
        }
      ],
      "stateMutability": "view",
      "type": "function",
      "constant": true
    },
    {
      "inputs": [
        {
          "internalType": "address",
          "name": "",
          "type": "address"
        }
      ],
      "name": "candidates",
      "outputs": [
        {
          "internalType": "uint256",
          "name": "candidateId",
          "type": "uint256"
        },
        {
          "internalType": "string",
          "name": "age",
          "type": "string"
        },
        {
          "internalType": "string",
          "name": "name",
          "type": "string"
        },
        {
          "internalType": "string",
          "name": "image",
          "type": "string"
        },
        {
          "internalType": "uint256",
          "name": "voteCount",
          "type": "uint256"
        },
        {
          "internalType": "address",
          "name": "_address",
          "type": "address"
        },
        {
          "internalType": "string",
          "name": "ipfs",
          "type": "string"
        }
      ],
      "stateMutability": "view",
      "type": "function",
      "constant": true
    },
    {
      "inputs": [
        {
          "internalType": "uint256",
          "name": "",
          "type": "uint256"
        }
      ],
      "name": "votedVoters",
      "outputs": [
        {
          "internalType": "address",
          "name": "",
          "type": "address"
        }
      ],
      "stateMutability": "view",
      "type": "function",
      "constant": true
    },
    {
      "inputs": [
        {
          "internalType": "address",
          "name": "",
          "type": "address"
        }
      ],
      "name": "voters",
      "outputs": [
        {
          "internalType": "uint256",
          "name": "voter_voterId",
          "type": "uint256"
        },
        {
          "internalType": "string",
          "name": "voter_name",
          "type": "string"
        },
        {
          "internalType": "string",
          "name": "voter_image",
          "type": "string"
        },
        {
          "internalType": "address",
          "name": "voter_address",
          "type": "address"
        },
        {
          "internalType": "uint256",
          "name": "voter_age",
          "type": "uint256"
        },
        {
          "internalType": "uint256",
          "name": "voter_allowed",
          "type": "uint256"
        },
        {
          "internalType": "bool",
          "name": "voter_voted",
          "type": "bool"
        },
        {
          "internalType": "uint256",
          "name": "voter_vote",
          "type": "uint256"
        },
        {
          "internalType": "string",
          "name": "voter_ipfs",
          "type": "string"
        }
      ],
      "stateMutability": "view",
      "type": "function",
      "constant": true
    },
    {
      "inputs": [
        {
          "internalType": "uint256",
          "name": "",
          "type": "uint256"
        }
      ],
      "name": "votersAddress",
      "outputs": [
        {
          "internalType": "address",
          "name": "",
          "type": "address"
        }
      ],
      "stateMutability": "view",
      "type": "function",
      "constant": true
    },
    {
      "inputs": [],
      "name": "endElection",
      "outputs": [],
      "stateMutability": "nonpayable",
      "type": "function"
    },
    {
      "inputs": [],
      "name": "startElection",
      "outputs": [],
      "stateMutability": "nonpayable",
      "type": "function"
    },
    {
      "inputs": [],
      "name": "getElectionStatus",
      "outputs": [
        {
          "internalType": "string",
          "name": "",
          "type": "string"
        }
      ],
      "stateMutability": "view",
      "type": "function",
      "constant": true
    },
    {
      "inputs": [
        {
          "internalType": "address",
          "name": "_address",
          "type": "address"
        },
        {
          "internalType": "string",
          "name": "_age",
          "type": "string"
        },
        {
          "internalType": "string",
          "name": "_name",
          "type": "string"
        },
        {
          "internalType": "string",
          "name": "_image",
          "type": "string"
        },
        {
          "internalType": "string",
          "name": "_ipfs",
          "type": "string"
        }
      ],
      "name": "addCandidate",
      "outputs": [],
      "stateMutability": "nonpayable",
      "type": "function"
    },
    {
      "inputs": [],
      "name": "getCandidate",
      "outputs": [
        {
          "internalType": "address[]",
          "name": "",
          "type": "address[]"
        }
      ],
      "stateMutability": "view",
      "type": "function",
      "constant": true
    },
    {
      "inputs": [],
      "name": "getCandidateLength",
      "outputs": [
        {
          "internalType": "uint256",
          "name": "",
          "type": "uint256"
        }
      ],
      "stateMutability": "view",
      "type": "function",
      "constant": true
    },
    {
      "inputs": [
        {
          "internalType": "address",
          "name": "_address",
          "type": "address"
        }
      ],
      "name": "getCandidateData",
      "outputs": [
        {
          "internalType": "string",
          "name": "",
          "type": "string"
        },
        {
          "internalType": "string",
          "name": "",
          "type": "string"
        },
        {
          "internalType": "uint256",
          "name": "",
          "type": "uint256"
        },
        {
          "internalType": "string",
          "name": "",
          "type": "string"
        },
        {
          "internalType": "uint256",
          "name": "",
          "type": "uint256"
        },
        {
          "internalType": "string",
          "name": "",
          "type": "string"
        },
        {
          "internalType": "address",
          "name": "",
          "type": "address"
        }
      ],
      "stateMutability": "view",
      "type": "function",
      "constant": true
    },
    {
      "inputs": [
        {
          "internalType": "address",
          "name": "_address",
          "type": "address"
        },
        {
          "internalType": "string",
          "name": "_name",
          "type": "string"
        },
        {
          "internalType": "string",
          "name": "_image",
          "type": "string"
        },
        {
          "internalType": "string",
          "name": "_ipfs",
          "type": "string"
        },
        {
          "internalType": "uint256",
          "name": "_age",
          "type": "uint256"
        }
      ],
      "name": "voteRight",
      "outputs": [],
      "stateMutability": "nonpayable",
      "type": "function"
    },
    {
      "inputs": [
        {
          "internalType": "address",
          "name": "_candidateAddress",
          "type": "address"
        },
        {
          "internalType": "uint256",
          "name": "_candidateVoteId",
          "type": "uint256"
        }
      ],
      "name": "vote",
      "outputs": [],
      "stateMutability": "nonpayable",
      "type": "function"
    },
    {
      "inputs": [],
      "name": "getVoterLength",
      "outputs": [
        {
          "internalType": "uint256",
          "name": "",
          "type": "uint256"
        }
      ],
      "stateMutability": "view",
      "type": "function",
      "constant": true
    },
    {
      "inputs": [
        {
          "internalType": "address",
          "name": "_address",
          "type": "address"
        }
      ],
      "name": "getVoterDetails",
      "outputs": [
        {
          "internalType": "uint256",
          "name": "",
          "type": "uint256"
        },
        {
          "internalType": "string",
          "name": "",
          "type": "string"
        },
        {
          "internalType": "string",
          "name": "",
          "type": "string"
        },
        {
          "internalType": "address",
          "name": "",
          "type": "address"
        },
        {
          "internalType": "uint256",
          "name": "",
          "type": "uint256"
        },
        {
          "internalType": "string",
          "name": "",
          "type": "string"
        },
        {
          "internalType": "bool",
          "name": "",
          "type": "bool"
        }
      ],
      "stateMutability": "view",
      "type": "function",
      "constant": true
    },
    {
      "inputs": [],
      "name": "getVotedVoterList",
      "outputs": [
        {
          "internalType": "address[]",
          "name": "",
          "type": "address[]"
        }
      ],
      "stateMutability": "view",
      "type": "function",
      "constant": true
    },
    {
      "inputs": [],
      "name": "getVoterList",
      "outputs": [
        {
          "internalType": "address[]",
          "name": "",
          "type": "address[]"
        }
      ],
      "stateMutability": "view",
      "type": "function",
      "constant": true
    }
  ],
  "bytecode": "0x608060405234801561001057600080fd5b50336002806101000a81548173ffffffffffffffffffffffffffffffffffffffff021916908373ffffffffffffffffffffffffffffffffffffffff1602179055506000600260006101000a81548160ff0219169083151502179055506001600260016101000a81548160ff021916908315150217905550612f00806100966000396000f3fe608060405234801561001057600080fd5b50600436106101375760003560e01c80637831ffb3116100b8578063b28d92ae1161007c578063b28d92ae14610352578063b567c63c14610370578063b9be31521461038c578063ba71bef0146103aa578063f7522a83146103e0578063f851a440146103fe57610137565b80637831ffb3146102785780638ab66a90146102a85780638e945685146102de578063a3ec138d146102fc578063a73889671461033457610137565b8063438fb9e5116100ff578063438fb9e51461020e57806359f784681461022a5780635f74bbde1461023457806362d73eb81461025057806370218b851461025a57610137565b806305ad45a41461013c578063122902a61461015a5780632a466ac7146101785780633a88251a146101ae57806343242daa146101de575b600080fd5b61014461041c565b6040516101519190611e2c565b60405180910390f35b610162610429565b60405161016f9190611ed7565b60405180910390f35b610192600480360381019061018d9190611f6b565b610557565b6040516101a59796959493929190611fa7565b60405180910390f35b6101c860048036038101906101c3919061205e565b61099e565b6040516101d5919061208b565b60405180910390f35b6101f860048036038101906101f3919061205e565b6109dd565b604051610205919061208b565b60405180910390f35b610228600480360381019061022391906121db565b610a1c565b005b610232610caa565b005b61024e600480360381019061024991906122aa565b610daf565b005b610258610fcc565b005b6102626110d1565b60405161026f91906123a8565b60405180910390f35b610292600480360381019061028d919061205e565b61115f565b60405161029f919061208b565b60405180910390f35b6102c260048036038101906102bd9190611f6b565b61119e565b6040516102d597969594939291906123ca565b60405180910390f35b6102e6611420565b6040516102f391906123a8565b60405180910390f35b61031660048036038101906103119190611f6b565b6114ae565b60405161032b99989796959493929190612470565b60405180910390f35b61033c6116c1565b6040516103499190611e2c565b60405180910390f35b61035a6116cd565b60405161036791906123a8565b60405180910390f35b61038a60048036038101906103859190612512565b61175b565b005b6103946119ea565b6040516103a19190611e2c565b60405180910390f35b6103c460048036038101906103bf9190611f6b565b6119f6565b6040516103d797969594939291906125fd565b60405180910390f35b6103e8611dbe565b6040516103f59190611e2c565b60405180910390f35b610406611dcb565b604051610413919061208b565b60405180910390f35b6000600680549050905090565b606060011515600260009054906101000a900460ff161515148015610461575060011515600260019054906101000a900460ff161515145b156104a3576040518060400160405280601381526020017f566f74696e67206861732066696e6973686564000000000000000000000000008152509050610554565b60011515600260009054906101000a900460ff1615151480156104d9575060001515600260019054906101000a900460ff161515145b1561051b576040518060400160405280601281526020017f566f74696e6720696e2050726f677265737300000000000000000000000000008152509050610554565b6040518060400160405280601281526020017f566f74696e67206e6f742d73746172746564000000000000000000000000000081525090505b90565b60608060006060600060606000600460008973ffffffffffffffffffffffffffffffffffffffff1673ffffffffffffffffffffffffffffffffffffffff168152602001908152602001600020600101600460008a73ffffffffffffffffffffffffffffffffffffffff1673ffffffffffffffffffffffffffffffffffffffff168152602001908152602001600020600201600460008b73ffffffffffffffffffffffffffffffffffffffff1673ffffffffffffffffffffffffffffffffffffffff16815260200190815260200160002060000154600460008c73ffffffffffffffffffffffffffffffffffffffff1673ffffffffffffffffffffffffffffffffffffffff168152602001908152602001600020600301600460008d73ffffffffffffffffffffffffffffffffffffffff1673ffffffffffffffffffffffffffffffffffffffff16815260200190815260200160002060040154600460008e73ffffffffffffffffffffffffffffffffffffffff1673ffffffffffffffffffffffffffffffffffffffff168152602001908152602001600020600601600460008f73ffffffffffffffffffffffffffffffffffffffff1673ffffffffffffffffffffffffffffffffffffffff16815260200190815260200160002060050160009054906101000a900473ffffffffffffffffffffffffffffffffffffffff16868054610761906126b0565b80601f016020809104026020016040519081016040528092919081815260200182805461078d906126b0565b80156107da5780601f106107af576101008083540402835291602001916107da565b820191906000526020600020905b8154815290600101906020018083116107bd57829003601f168201915b505050505096508580546107ed906126b0565b80601f0160208091040260200160405190810160405280929190818152602001828054610819906126b0565b80156108665780601f1061083b57610100808354040283529160200191610866565b820191906000526020600020905b81548152906001019060200180831161084957829003601f168201915b50505050509550838054610879906126b0565b80601f01602080910402602001604051908101604052809291908181526020018280546108a5906126b0565b80156108f25780601f106108c7576101008083540402835291602001916108f2565b820191906000526020600020905b8154815290600101906020018083116108d557829003601f168201915b50505050509350818054610905906126b0565b80601f0160208091040260200160405190810160405280929190818152602001828054610931906126b0565b801561097e5780601f106109535761010080835404028352916020019161097e565b820191906000526020600020905b81548152906001019060200180831161096157829003601f168201915b505050505091509650965096509650965096509650919395979092949650565b600381815481106109ae57600080fd5b906000526020600020016000915054906101000a900473ffffffffffffffffffffffffffffffffffffffff1681565b600681815481106109ed57600080fd5b906000526020600020016000915054906101000a900473ffffffffffffffffffffffffffffffffffffffff1681565b60001515600260009054906101000a900460ff16151514610a72576040517f08c379a0000000000000000000000000000000000000000000000000000000008152600401610a6990612753565b60405180910390fd5b6012811015610ab6576040517f08c379a0000000000000000000000000000000000000000000000000000000008152600401610aad906127bf565b60405180910390fd5b610ac06000611def565b6000610acc6000611e05565b90506000600760008873ffffffffffffffffffffffffffffffffffffffff1673ffffffffffffffffffffffffffffffffffffffff16815260200190815260200160002090506000816005015414610b2257600080fd5b6001816005018190555085816001019081610b3d919061298b565b5084816002019081610b4f919061298b565b50868160030160006101000a81548173ffffffffffffffffffffffffffffffffffffffff021916908373ffffffffffffffffffffffffffffffffffffffff1602179055508281600401819055508181600001819055506103e8816007018190555060008160060160006101000a81548160ff02191690831515021790555083816008019081610bde919061298b565b506006879080600181540180825580915050600190039060005260206000200160009091909190916101000a81548173ffffffffffffffffffffffffffffffffffffffff021916908373ffffffffffffffffffffffffffffffffffffffff160217905550817fee8b6cf4aed4449e9ff8bf76815a59f04c1aefad0760340c7b8afdd2fed48fc187878a8786600501548760060160009054906101000a900460ff1688600701548c604051610c99989796959493929190612a5d565b60405180910390a250505050505050565b3373ffffffffffffffffffffffffffffffffffffffff1660028054906101000a900473ffffffffffffffffffffffffffffffffffffffff1673ffffffffffffffffffffffffffffffffffffffff1614610d38576040517f08c379a0000000000000000000000000000000000000000000000000000000008152600401610d2f90612b62565b60405180910390fd5b60011515600260009054906101000a900460ff161515148015610d6e575060001515600260019054906101000a900460ff161515145b610d7757600080fd5b6000600260006101000a81548160ff0219169083151502179055506001600260016101000a81548160ff021916908315150217905550565b6000600760003373ffffffffffffffffffffffffffffffffffffffff1673ffffffffffffffffffffffffffffffffffffffff16815260200190815260200160002090508060060160009054906101000a900460ff1615610e44576040517f08c379a0000000000000000000000000000000000000000000000000000000008152600401610e3b90612bce565b60405180910390fd5b60011515600260009054906101000a900460ff16151514610e9a576040517f08c379a0000000000000000000000000000000000000000000000000000000008152600401610e9190612c60565b60405180910390fd5b6000816005015403610ee1576040517f08c379a0000000000000000000000000000000000000000000000000000000008152600401610ed890612ccc565b60405180910390fd5b60018160060160006101000a81548160ff0219169083151502179055508181600701819055506005339080600181540180825580915050600190039060005260206000200160009091909190916101000a81548173ffffffffffffffffffffffffffffffffffffffff021916908373ffffffffffffffffffffffffffffffffffffffff1602179055508060050154600460008573ffffffffffffffffffffffffffffffffffffffff1673ffffffffffffffffffffffffffffffffffffffff1681526020019081526020016000206004016000828254610fc09190612d1b565b92505081905550505050565b60028054906101000a900473ffffffffffffffffffffffffffffffffffffffff1673ffffffffffffffffffffffffffffffffffffffff163373ffffffffffffffffffffffffffffffffffffffff161461105a576040517f08c379a000000000000000000000000000000000000000000000000000000000815260040161105190612d9b565b60405180910390fd5b60001515600260009054906101000a900460ff161515148015611090575060011515600260019054906101000a900460ff161515145b61109957600080fd5b6001600260006101000a81548160ff0219169083151502179055506000600260016101000a81548160ff021916908315150217905550565b6060600380548060200260200160405190810160405280929190818152602001828054801561115557602002820191906000526020600020905b8160009054906101000a900473ffffffffffffffffffffffffffffffffffffffff1673ffffffffffffffffffffffffffffffffffffffff168152602001906001019080831161110b575b5050505050905090565b6005818154811061116f57600080fd5b906000526020600020016000915054906101000a900473ffffffffffffffffffffffffffffffffffffffff1681565b60046020528060005260406000206000915090508060000154908060010180546111c7906126b0565b80601f01602080910402602001604051908101604052809291908181526020018280546111f3906126b0565b80156112405780601f1061121557610100808354040283529160200191611240565b820191906000526020600020905b81548152906001019060200180831161122357829003601f168201915b505050505090806002018054611255906126b0565b80601f0160208091040260200160405190810160405280929190818152602001828054611281906126b0565b80156112ce5780601f106112a3576101008083540402835291602001916112ce565b820191906000526020600020905b8154815290600101906020018083116112b157829003601f168201915b5050505050908060030180546112e3906126b0565b80601f016020809104026020016040519081016040528092919081815260200182805461130f906126b0565b801561135c5780601f106113315761010080835404028352916020019161135c565b820191906000526020600020905b81548152906001019060200180831161133f57829003601f168201915b5050505050908060040154908060050160009054906101000a900473ffffffffffffffffffffffffffffffffffffffff169080600601805461139d906126b0565b80601f01602080910402602001604051908101604052809291908181526020018280546113c9906126b0565b80156114165780601f106113eb57610100808354040283529160200191611416565b820191906000526020600020905b8154815290600101906020018083116113f957829003601f168201915b5050505050905087565b606060058054806020026020016040519081016040528092919081815260200182805480156114a457602002820191906000526020600020905b8160009054906101000a900473ffffffffffffffffffffffffffffffffffffffff1673ffffffffffffffffffffffffffffffffffffffff168152602001906001019080831161145a575b5050505050905090565b60076020528060005260406000206000915090508060000154908060010180546114d7906126b0565b80601f0160208091040260200160405190810160405280929190818152602001828054611503906126b0565b80156115505780601f1061152557610100808354040283529160200191611550565b820191906000526020600020905b81548152906001019060200180831161153357829003601f168201915b505050505090806002018054611565906126b0565b80601f0160208091040260200160405190810160405280929190818152602001828054611591906126b0565b80156115de5780601f106115b3576101008083540402835291602001916115de565b820191906000526020600020905b8154815290600101906020018083116115c157829003601f168201915b5050505050908060030160009054906101000a900473ffffffffffffffffffffffffffffffffffffffff16908060040154908060050154908060060160009054906101000a900460ff169080600701549080600801805461163e906126b0565b80601f016020809104026020016040519081016040528092919081815260200182805461166a906126b0565b80156116b75780601f1061168c576101008083540402835291602001916116b7565b820191906000526020600020905b81548152906001019060200180831161169a57829003601f168201915b5050505050905089565b60018060000154905081565b6060600680548060200260200160405190810160405280929190818152602001828054801561175157602002820191906000526020600020905b8160009054906101000a900473ffffffffffffffffffffffffffffffffffffffff1673ffffffffffffffffffffffffffffffffffffffff1681526020019060010190808311611707575b5050505050905090565b3373ffffffffffffffffffffffffffffffffffffffff1660028054906101000a900473ffffffffffffffffffffffffffffffffffffffff1673ffffffffffffffffffffffffffffffffffffffff16146117e9576040517f08c379a00000000000000000000000000000000000000000000000000000000081526004016117e090612b62565b60405180910390fd5b60011515600260019054906101000a900460ff1615151461183f576040517f08c379a000000000000000000000000000000000000000000000000000000000815260040161183690612e2d565b60405180910390fd5b6118496001611def565b60006118556001611e05565b90506000600460008873ffffffffffffffffffffffffffffffffffffffff1673ffffffffffffffffffffffffffffffffffffffff1681526020019081526020016000209050858160010190816118ab919061298b565b50848160020190816118bd919061298b565b50818160000181905550838160030190816118d8919061298b565b5060008160040181905550868160050160006101000a81548173ffffffffffffffffffffffffffffffffffffffff021916908373ffffffffffffffffffffffffffffffffffffffff16021790555082816006019081611937919061298b565b506003879080600181540180825580915050600190039060005260206000200160009091909190916101000a81548173ffffffffffffffffffffffffffffffffffffffff021916908373ffffffffffffffffffffffffffffffffffffffff160217905550817f76a7e5a62b5edbdf0c1478a9de193d486797d723e48b8a9eab38b4bc800c753087878785600401548c896040516119d996959493929190612e4d565b60405180910390a250505050505050565b60008060000154905081565b600060608060008060606000600760008973ffffffffffffffffffffffffffffffffffffffff1673ffffffffffffffffffffffffffffffffffffffff16815260200190815260200160002060000154600760008a73ffffffffffffffffffffffffffffffffffffffff1673ffffffffffffffffffffffffffffffffffffffff168152602001908152602001600020600101600760008b73ffffffffffffffffffffffffffffffffffffffff1673ffffffffffffffffffffffffffffffffffffffff168152602001908152602001600020600201600760008c73ffffffffffffffffffffffffffffffffffffffff1673ffffffffffffffffffffffffffffffffffffffff16815260200190815260200160002060030160009054906101000a900473ffffffffffffffffffffffffffffffffffffffff16600760008d73ffffffffffffffffffffffffffffffffffffffff1673ffffffffffffffffffffffffffffffffffffffff16815260200190815260200160002060040154600760008e73ffffffffffffffffffffffffffffffffffffffff1673ffffffffffffffffffffffffffffffffffffffff168152602001908152602001600020600801600760008f73ffffffffffffffffffffffffffffffffffffffff1673ffffffffffffffffffffffffffffffffffffffff16815260200190815260200160002060060160009054906101000a900460ff16858054611c0d906126b0565b80601f0160208091040260200160405190810160405280929190818152602001828054611c39906126b0565b8015611c865780601f10611c5b57610100808354040283529160200191611c86565b820191906000526020600020905b815481529060010190602001808311611c6957829003601f168201915b50505050509550848054611c99906126b0565b80601f0160208091040260200160405190810160405280929190818152602001828054611cc5906126b0565b8015611d125780601f10611ce757610100808354040283529160200191611d12565b820191906000526020600020905b815481529060010190602001808311611cf557829003601f168201915b50505050509450818054611d25906126b0565b80601f0160208091040260200160405190810160405280929190818152602001828054611d51906126b0565b8015611d9e5780601f10611d7357610100808354040283529160200191611d9e565b820191906000526020600020905b815481529060010190602001808311611d8157829003601f168201915b505050505091509650965096509650965096509650919395979092949650565b6000600380549050905090565b60028054906101000a900473ffffffffffffffffffffffffffffffffffffffff1681565b6001816000016000828254019250508190555050565b600081600001549050919050565b6000819050919050565b611e2681611e13565b82525050565b6000602082019050611e416000830184611e1d565b92915050565b600081519050919050565b600082825260208201905092915050565b60005b83811015611e81578082015181840152602081019050611e66565b60008484015250505050565b6000601f19601f8301169050919050565b6000611ea982611e47565b611eb38185611e52565b9350611ec3818560208601611e63565b611ecc81611e8d565b840191505092915050565b60006020820190508181036000830152611ef18184611e9e565b905092915050565b6000604051905090565b600080fd5b600080fd5b600073ffffffffffffffffffffffffffffffffffffffff82169050919050565b6000611f3882611f0d565b9050919050565b611f4881611f2d565b8114611f5357600080fd5b50565b600081359050611f6581611f3f565b92915050565b600060208284031215611f8157611f80611f03565b5b6000611f8f84828501611f56565b91505092915050565b611fa181611f2d565b82525050565b600060e0820190508181036000830152611fc1818a611e9e565b90508181036020830152611fd58189611e9e565b9050611fe46040830188611e1d565b8181036060830152611ff68187611e9e565b90506120056080830186611e1d565b81810360a08301526120178185611e9e565b905061202660c0830184611f98565b98975050505050505050565b61203b81611e13565b811461204657600080fd5b50565b60008135905061205881612032565b92915050565b60006020828403121561207457612073611f03565b5b600061208284828501612049565b91505092915050565b60006020820190506120a06000830184611f98565b92915050565b600080fd5b600080fd5b7f4e487b7100000000000000000000000000000000000000000000000000000000600052604160045260246000fd5b6120e882611e8d565b810181811067ffffffffffffffff82111715612107576121066120b0565b5b80604052505050565b600061211a611ef9565b905061212682826120df565b919050565b600067ffffffffffffffff821115612146576121456120b0565b5b61214f82611e8d565b9050602081019050919050565b82818337600083830152505050565b600061217e6121798461212b565b612110565b90508281526020810184848401111561219a576121996120ab565b5b6121a584828561215c565b509392505050565b600082601f8301126121c2576121c16120a6565b5b81356121d284826020860161216b565b91505092915050565b600080600080600060a086880312156121f7576121f6611f03565b5b600061220588828901611f56565b955050602086013567ffffffffffffffff81111561222657612225611f08565b5b612232888289016121ad565b945050604086013567ffffffffffffffff81111561225357612252611f08565b5b61225f888289016121ad565b935050606086013567ffffffffffffffff8111156122805761227f611f08565b5b61228c888289016121ad565b925050608061229d88828901612049565b9150509295509295909350565b600080604083850312156122c1576122c0611f03565b5b60006122cf85828601611f56565b92505060206122e085828601612049565b9150509250929050565b600081519050919050565b600082825260208201905092915050565b6000819050602082019050919050565b61231f81611f2d565b82525050565b60006123318383612316565b60208301905092915050565b6000602082019050919050565b6000612355826122ea565b61235f81856122f5565b935061236a83612306565b8060005b8381101561239b5781516123828882612325565b975061238d8361233d565b92505060018101905061236e565b5085935050505092915050565b600060208201905081810360008301526123c2818461234a565b905092915050565b600060e0820190506123df600083018a611e1d565b81810360208301526123f18189611e9e565b905081810360408301526124058188611e9e565b905081810360608301526124198187611e9e565b90506124286080830186611e1d565b61243560a0830185611f98565b81810360c08301526124478184611e9e565b905098975050505050505050565b60008115159050919050565b61246a81612455565b82525050565b600061012082019050612486600083018c611e1d565b8181036020830152612498818b611e9e565b905081810360408301526124ac818a611e9e565b90506124bb6060830189611f98565b6124c86080830188611e1d565b6124d560a0830187611e1d565b6124e260c0830186612461565b6124ef60e0830185611e1d565b8181036101008301526125028184611e9e565b90509a9950505050505050505050565b600080600080600060a0868803121561252e5761252d611f03565b5b600061253c88828901611f56565b955050602086013567ffffffffffffffff81111561255d5761255c611f08565b5b612569888289016121ad565b945050604086013567ffffffffffffffff81111561258a57612589611f08565b5b612596888289016121ad565b935050606086013567ffffffffffffffff8111156125b7576125b6611f08565b5b6125c3888289016121ad565b925050608086013567ffffffffffffffff8111156125e4576125e3611f08565b5b6125f0888289016121ad565b9150509295509295909350565b600060e082019050612612600083018a611e1d565b81810360208301526126248189611e9e565b905081810360408301526126388188611e9e565b90506126476060830187611f98565b6126546080830186611e1d565b81810360a08301526126668185611e9e565b905061267560c0830184612461565b98975050505050505050565b7f4e487b7100000000000000000000000000000000000000000000000000000000600052602260045260246000fd5b600060028204905060018216806126c857607f821691505b6020821081036126db576126da612681565b5b50919050565b7f456c656374696f6e20696e2070726f67726573732c205269676874207265766f60008201527f6b65642100000000000000000000000000000000000000000000000000000000602082015250565b600061273d602483611e52565b9150612748826126e1565b604082019050919050565b6000602082019050818103600083015261276c81612730565b9050919050565b7f4f70732120596f752061726520756e6465726167650000000000000000000000600082015250565b60006127a9601583611e52565b91506127b482612773565b602082019050919050565b600060208201905081810360008301526127d88161279c565b9050919050565b60008190508160005260206000209050919050565b60006020601f8301049050919050565b600082821b905092915050565b6000600883026128417fffffffffffffffffffffffffffffffffffffffffffffffffffffffffffffffff82612804565b61284b8683612804565b95508019841693508086168417925050509392505050565b6000819050919050565b600061288861288361287e84611e13565b612863565b611e13565b9050919050565b6000819050919050565b6128a28361286d565b6128b66128ae8261288f565b848454612811565b825550505050565b600090565b6128cb6128be565b6128d6818484612899565b505050565b5b818110156128fa576128ef6000826128c3565b6001810190506128dc565b5050565b601f82111561293f57612910816127df565b612919846127f4565b81016020851015612928578190505b61293c612934856127f4565b8301826128db565b50505b505050565b600082821c905092915050565b600061296260001984600802612944565b1980831691505092915050565b600061297b8383612951565b9150826002028217905092915050565b61299482611e47565b67ffffffffffffffff8111156129ad576129ac6120b0565b5b6129b782546126b0565b6129c28282856128fe565b600060209050601f8311600181146129f557600084156129e3578287015190505b6129ed858261296f565b865550612a55565b601f198416612a03866127df565b60005b82811015612a2b57848901518255600182019150602085019450602081019050612a06565b86831015612a485784890151612a44601f891682612951565b8355505b6001600288020188555050505b505050505050565b6000610100820190508181036000830152612a78818b611e9e565b90508181036020830152612a8c818a611e9e565b9050612a9b6040830189611f98565b612aa86060830188611e1d565b612ab56080830187611e1d565b612ac260a0830186612461565b612acf60c0830185611e1d565b81810360e0830152612ae18184611e9e565b90509998505050505050505050565b7f5468697320697320616e2061646d696e2066756e6374696f6e2c20506c65617360008201527f6520436f6e746163742061646d696e0000000000000000000000000000000000602082015250565b6000612b4c602f83611e52565b9150612b5782612af0565b604082019050919050565b60006020820190508181036000830152612b7b81612b3f565b9050919050565b7f596f75206861766520616c726561647920766f74656400000000000000000000600082015250565b6000612bb8601683611e52565b9150612bc382612b82565b602082019050919050565b60006020820190508181036000830152612be781612bab565b9050919050565b7f596f752063616e6e6f7420766f7465206e6f772c20776169742074696c6c207460008201527f686520706f6c6c206973206f70656e656420666f7220766f74696e6700000000602082015250565b6000612c4a603c83611e52565b9150612c5582612bee565b604082019050919050565b60006020820190508181036000830152612c7981612c3d565b9050919050565b7f796f752068617665206e6f20726967687420746f20766f746500000000000000600082015250565b6000612cb6601983611e52565b9150612cc182612c80565b602082019050919050565b60006020820190508181036000830152612ce581612ca9565b9050919050565b7f4e487b7100000000000000000000000000000000000000000000000000000000600052601160045260246000fd5b6000612d2682611e13565b9150612d3183611e13565b9250828201905080821115612d4957612d48612cec565b5b92915050565b7f4f6e6c792041646d696e2063616e20737461727420456c656374696f6e000000600082015250565b6000612d85601d83611e52565b9150612d9082612d4f565b602082019050919050565b60006020820190508181036000830152612db481612d78565b9050919050565b7f596f752063616e206e6f7465206164642063616e646964617465207768656e2060008201527f656c656374696f6e20697320696e2070726f6772657373000000000000000000602082015250565b6000612e17603783611e52565b9150612e2282612dbb565b604082019050919050565b60006020820190508181036000830152612e4681612e0a565b9050919050565b600060c0820190508181036000830152612e678189611e9e565b90508181036020830152612e7b8188611e9e565b90508181036040830152612e8f8187611e9e565b9050612e9e6060830186611e1d565b612eab6080830185611f98565b81810360a0830152612ebd8184611e9e565b905097965050505050505056fea2646970667358221220c18674f6dd0f7b9ca25aae2e725fce1e01a6709244dbd6b7eea448dbc99e5efc64736f6c63430008110033",
  "immutableReferences": {},
  "source": "//SPDX-License-Identifier: UNLICENSED\r\n\r\npragma solidity ^0.8.0;\r\n\r\nimport \"@openzeppelin/contracts/utils/Counters.sol\";\r\n\r\ncontract Voting {\r\n    using Counters for Counters.Counter;\r\n\r\n    Counters.Counter public _voterId;\r\n    Counters.Counter public _candidateId;\r\n\r\n    bool started;\r\n    bool ended;\r\n\r\n    /*<---------------------Election Status---------------->*/\r\n    constructor() {\r\n        admin = msg.sender;\r\n        started = false;\r\n        ended = true;\r\n    }\r\n\r\n    address public admin;\r\n\r\n    modifier onlyAdmin() {\r\n        require(\r\n            admin == msg.sender,\r\n            \"This is an admin function, Please Contact admin\"\r\n        );\r\n        _;\r\n    }\r\n\r\n    function endElection() public onlyAdmin {\r\n        require(started == true && ended == false);\r\n\r\n        started = false;\r\n        ended = true;\r\n    }\r\n\r\n    function startElection() public {\r\n        require(msg.sender == admin, \"Only Admin can start Election\");\r\n        require(started == false && ended == true);\r\n\r\n        started = true;\r\n        ended = false;\r\n    }\r\n\r\n    function getElectionStatus() public view returns (string memory) {\r\n        if (started == true && ended == true) {\r\n            return \"Voting has finished\";\r\n        }\r\n\r\n        if (started == true && ended == false) {\r\n            return \"Voting in Progress\";\r\n        }\r\n\r\n        return \"Voting not-started\";\r\n    }\r\n\r\n    /* <-----------------------Candidate Details---->  */\r\n    struct Candidate {\r\n        uint256 candidateId;\r\n        string age;\r\n        string name;\r\n        string image;\r\n        uint256 voteCount;\r\n        address _address;\r\n        string ipfs;\r\n    }\r\n\r\n    event CreateCandidate(\r\n        uint256 indexed candidateId,\r\n        string age,\r\n        string name,\r\n        string image,\r\n        uint256 voteCount,\r\n        address _address,\r\n        string ipfs\r\n    );\r\n\r\n    address[] public candidateAddress;\r\n    mapping(address => Candidate) public candidates;\r\n\r\n    //<----------------voters details----------->\r\n\r\n    address[] public votedVoters;\r\n    address[] public votersAddress;\r\n    mapping(address => Voter) public voters;\r\n\r\n    struct Voter {\r\n        uint256 voter_voterId;\r\n        string voter_name;\r\n        string voter_image;\r\n        address voter_address;\r\n        uint256 voter_age;\r\n        uint256 voter_allowed;\r\n        bool voter_voted;\r\n        uint256 voter_vote;\r\n        string voter_ipfs;\r\n    }\r\n    event CreatedVoter(\r\n        uint256 indexed voter_voterId,\r\n        string voter_name,\r\n        string voter_image,\r\n        address voter_address,\r\n        uint256 voter_age,\r\n        uint256 voter_allowed,\r\n        bool voter_voted,\r\n        uint256 voter_vote,\r\n        string voter_ipfs\r\n    );\r\n\r\n    function addCandidate(\r\n        address _address,\r\n        string memory _age,\r\n        string memory _name,\r\n        string memory _image,\r\n        string memory _ipfs\r\n    ) public onlyAdmin {\r\n        require(\r\n            ended == true,\r\n            \"You can note add candidate when election is in progress\"\r\n        );\r\n        _candidateId.increment();\r\n        uint256 idNumber = _candidateId.current();\r\n\r\n        Candidate storage candidate = candidates[_address];\r\n\r\n        candidate.age = _age;\r\n        candidate.name = _name;\r\n        candidate.candidateId = idNumber;\r\n        candidate.image = _image;\r\n        candidate.voteCount = 0;\r\n        candidate._address = _address;\r\n        candidate.ipfs = _ipfs;\r\n\r\n        candidateAddress.push(_address);\r\n\r\n        emit CreateCandidate(\r\n            idNumber,\r\n            _age,\r\n            _name,\r\n            _image,\r\n            candidate.voteCount,\r\n            _address,\r\n            _ipfs\r\n        );\r\n    }\r\n\r\n    function getCandidate() public view returns (address[] memory) {\r\n        return candidateAddress;\r\n    }\r\n\r\n    function getCandidateLength() public view returns (uint256) {\r\n        return candidateAddress.length;\r\n    }\r\n\r\n    function getCandidateData(address _address)\r\n        public\r\n        view\r\n        returns (\r\n            string memory,\r\n            string memory,\r\n            uint256,\r\n            string memory,\r\n            uint256,\r\n            string memory,\r\n            address\r\n        )\r\n    {\r\n        return (\r\n            candidates[_address].age,\r\n            candidates[_address].name,\r\n            candidates[_address].candidateId,\r\n            candidates[_address].image,\r\n            candidates[_address].voteCount,\r\n            candidates[_address].ipfs,\r\n            candidates[_address]._address\r\n        );\r\n    }\r\n\r\n    function voteRight(\r\n        address _address,\r\n        string memory _name,\r\n        string memory _image,\r\n        string memory _ipfs,\r\n        uint256 _age\r\n    ) public {\r\n        require(started == false, \"Election in progress, Right revoked!\");\r\n        require(_age >= 18, \"Ops! You are underage\");\r\n\r\n        _voterId.increment();\r\n\r\n        uint256 idNumber = _voterId.current();\r\n        Voter storage voter = voters[_address];\r\n        require(voter.voter_allowed == 0);\r\n\r\n        voter.voter_allowed = 1;\r\n        voter.voter_name = _name;\r\n        voter.voter_image = _image;\r\n        voter.voter_address = _address;\r\n        voter.voter_age = _age;\r\n        voter.voter_voterId = idNumber;\r\n        voter.voter_vote = 1000;\r\n        voter.voter_voted = false;\r\n        voter.voter_ipfs = _ipfs;\r\n\r\n        votersAddress.push(_address);\r\n\r\n        emit CreatedVoter(\r\n            idNumber,\r\n            _name,\r\n            _image,\r\n            _address,\r\n            _age,\r\n            voter.voter_allowed,\r\n            voter.voter_voted,\r\n            voter.voter_vote,\r\n            _ipfs\r\n        );\r\n    }\r\n\r\n    function vote(address _candidateAddress, uint256 _candidateVoteId) public {\r\n        Voter storage voter = voters[msg.sender];\r\n\r\n        require(!voter.voter_voted, \"You have already voted\");\r\n        require(\r\n            started == true,\r\n            \"You cannot vote now, wait till the poll is opened for voting\"\r\n        );\r\n        require(voter.voter_allowed != 0, \"you have no right to vote\");\r\n\r\n        voter.voter_voted = true;\r\n        voter.voter_vote = _candidateVoteId;\r\n\r\n        votedVoters.push(msg.sender);\r\n\r\n        candidates[_candidateAddress].voteCount += voter.voter_allowed;\r\n    }\r\n\r\n    function getVoterLength() public view returns (uint256) {\r\n        return votersAddress.length;\r\n    }\r\n\r\n    function getVoterDetails(address _address)\r\n        public\r\n        view\r\n        returns (\r\n            uint256,\r\n            string memory,\r\n            string memory,\r\n            address,\r\n            uint256,\r\n            string memory,\r\n            bool\r\n        )\r\n    {\r\n        return (\r\n            voters[_address].voter_voterId,\r\n            voters[_address].voter_name,\r\n            voters[_address].voter_image,\r\n            voters[_address].voter_address,\r\n            voters[_address].voter_age,\r\n            voters[_address].voter_ipfs,\r\n            voters[_address].voter_voted\r\n        );\r\n    }\r\n\r\n    function getVotedVoterList() public view returns (address[] memory) {\r\n        return votedVoters;\r\n    }\r\n\r\n    function getVoterList() public view returns (address[] memory) {\r\n        return votersAddress;\r\n    }\r\n}\r\n",
  "sourcePath": "C:\\Users\\LILLY\\projects\\Voting_app\\smart_contract\\contracts\\Voting.sol",
  "compiler": {
    "name": "solc",
    "version": "0.8.17+commit.8df45f5f.Emscripten.clang"
  },
  "schemaVersion": "3.4.11",
  "updatedAt": "2022-12-16T23:22:12.155Z",
  "networkType": "ethereum",
  "devdoc": {
    "kind": "dev",
    "methods": {},
    "version": 1
  },
  "userdoc": {
    "kind": "user",
    "methods": {},
    "version": 1
  }
}