{
  "contractName": "Voting",
  "abi": [
    {
      "inputs": [],
      "stateMutability": "nonpayable",
      "type": "constructor"
    },
    {
      "anonymous": false,
      "inputs": [
        {
          "indexed": true,
          "internalType": "uint256",
          "name": "candidateId",
          "type": "uint256"
        },
        {
          "indexed": false,
          "internalType": "uint256",
          "name": "age",
          "type": "uint256"
        },
        {
          "indexed": false,
          "internalType": "string",
          "name": "name",
          "type": "string"
        },
        {
          "indexed": false,
          "internalType": "uint256",
          "name": "voteCount",
          "type": "uint256"
        },
        {
          "indexed": false,
          "internalType": "address",
          "name": "_address",
          "type": "address"
        },
        {
          "indexed": false,
          "internalType": "string",
          "name": "ipfs",
          "type": "string"
        }
      ],
      "name": "CreateCandidate",
      "type": "event"
    },
    {
      "anonymous": false,
      "inputs": [
        {
          "indexed": true,
          "internalType": "uint256",
          "name": "voter_voterId",
          "type": "uint256"
        },
        {
          "indexed": false,
          "internalType": "string",
          "name": "voter_name",
          "type": "string"
        },
        {
          "indexed": false,
          "internalType": "address",
          "name": "voter_address",
          "type": "address"
        },
        {
          "indexed": false,
          "internalType": "uint256",
          "name": "voter_age",
          "type": "uint256"
        },
        {
          "indexed": false,
          "internalType": "uint256",
          "name": "voter_allowed",
          "type": "uint256"
        },
        {
          "indexed": false,
          "internalType": "bool",
          "name": "voter_voted",
          "type": "bool"
        },
        {
          "indexed": false,
          "internalType": "uint256",
          "name": "voter_vote",
          "type": "uint256"
        },
        {
          "indexed": false,
          "internalType": "string",
          "name": "voter_ipfs",
          "type": "string"
        }
      ],
      "name": "CreatedVoter",
      "type": "event"
    },
    {
      "anonymous": false,
      "inputs": [
        {
          "indexed": false,
          "internalType": "bool",
          "name": "started",
          "type": "bool"
        },
        {
          "indexed": false,
          "internalType": "bool",
          "name": "ended",
          "type": "bool"
        }
      ],
      "name": "electiontime",
      "type": "event"
    },
    {
      "inputs": [],
      "name": "_candidateId",
      "outputs": [
        {
          "internalType": "uint256",
          "name": "_value",
          "type": "uint256"
        }
      ],
      "stateMutability": "view",
      "type": "function",
      "constant": true
    },
    {
      "inputs": [],
      "name": "_voterId",
      "outputs": [
        {
          "internalType": "uint256",
          "name": "_value",
          "type": "uint256"
        }
      ],
      "stateMutability": "view",
      "type": "function",
      "constant": true
    },
    {
      "inputs": [],
      "name": "admin",
      "outputs": [
        {
          "internalType": "address",
          "name": "",
          "type": "address"
        }
      ],
      "stateMutability": "view",
      "type": "function",
      "constant": true
    },
    {
      "inputs": [],
      "name": "getStartedValue",
      "outputs": [
        {
          "internalType": "bool",
          "name": "",
          "type": "bool"
        }
      ],
      "stateMutability": "view",
      "type": "function",
      "constant": true
    },
    {
      "inputs": [],
      "name": "getEndedValue",
      "outputs": [
        {
          "internalType": "bool",
          "name": "",
          "type": "bool"
        }
      ],
      "stateMutability": "view",
      "type": "function",
      "constant": true
    },
    {
      "inputs": [],
      "name": "endElection",
      "outputs": [],
      "stateMutability": "nonpayable",
      "type": "function"
    },
    {
      "inputs": [],
      "name": "startElection",
      "outputs": [],
      "stateMutability": "nonpayable",
      "type": "function"
    },
    {
      "inputs": [],
      "name": "getElectionStatus",
      "outputs": [
        {
          "internalType": "string",
          "name": "",
          "type": "string"
        }
      ],
      "stateMutability": "view",
      "type": "function",
      "constant": true
    },
    {
      "inputs": [
        {
          "internalType": "address",
          "name": "_address",
          "type": "address"
        },
        {
          "internalType": "uint256",
          "name": "_age",
          "type": "uint256"
        },
        {
          "internalType": "string",
          "name": "_name",
          "type": "string"
        },
        {
          "internalType": "string",
          "name": "_ipfs",
          "type": "string"
        }
      ],
      "name": "addCandidate",
      "outputs": [],
      "stateMutability": "nonpayable",
      "type": "function"
    },
    {
      "inputs": [],
      "name": "getCandidate",
      "outputs": [
        {
          "internalType": "address[]",
          "name": "",
          "type": "address[]"
        }
      ],
      "stateMutability": "view",
      "type": "function",
      "constant": true
    },
    {
      "inputs": [],
      "name": "getCandidateLength",
      "outputs": [
        {
          "internalType": "uint256",
          "name": "",
          "type": "uint256"
        }
      ],
      "stateMutability": "view",
      "type": "function",
      "constant": true
    },
    {
      "inputs": [
        {
          "internalType": "address",
          "name": "_address",
          "type": "address"
        }
      ],
      "name": "getCandidateData",
      "outputs": [
        {
          "components": [
            {
              "internalType": "uint256",
              "name": "candidateId",
              "type": "uint256"
            },
            {
              "internalType": "uint256",
              "name": "age",
              "type": "uint256"
            },
            {
              "internalType": "string",
              "name": "name",
              "type": "string"
            },
            {
              "internalType": "uint256",
              "name": "voteCount",
              "type": "uint256"
            },
            {
              "internalType": "address",
              "name": "_address",
              "type": "address"
            },
            {
              "internalType": "string",
              "name": "ipfs",
              "type": "string"
            }
          ],
          "internalType": "struct Voting.Candidate",
          "name": "",
          "type": "tuple"
        }
      ],
      "stateMutability": "view",
      "type": "function",
      "constant": true
    },
    {
      "inputs": [
        {
          "internalType": "string",
          "name": "_name",
          "type": "string"
        },
        {
          "internalType": "string",
          "name": "_ipfs",
          "type": "string"
        },
        {
          "internalType": "uint256",
          "name": "_age",
          "type": "uint256"
        }
      ],
      "name": "Addvoter",
      "outputs": [],
      "stateMutability": "nonpayable",
      "type": "function"
    },
    {
      "inputs": [
        {
          "internalType": "address",
          "name": "_candidateAddress",
          "type": "address"
        },
        {
          "internalType": "uint256",
          "name": "_candidateVoteId",
          "type": "uint256"
        }
      ],
      "name": "vote",
      "outputs": [],
      "stateMutability": "nonpayable",
      "type": "function"
    },
    {
      "inputs": [],
      "name": "getVoterLength",
      "outputs": [
        {
          "internalType": "uint256",
          "name": "",
          "type": "uint256"
        }
      ],
      "stateMutability": "view",
      "type": "function",
      "constant": true
    },
    {
      "inputs": [
        {
          "internalType": "address",
          "name": "_address",
          "type": "address"
        }
      ],
      "name": "getVoterDetails",
      "outputs": [
        {
          "components": [
            {
              "internalType": "uint256",
              "name": "voter_voterId",
              "type": "uint256"
            },
            {
              "internalType": "string",
              "name": "voter_name",
              "type": "string"
            },
            {
              "internalType": "address",
              "name": "voter_address",
              "type": "address"
            },
            {
              "internalType": "uint256",
              "name": "voter_age",
              "type": "uint256"
            },
            {
              "internalType": "uint256",
              "name": "voter_allowed",
              "type": "uint256"
            },
            {
              "internalType": "bool",
              "name": "voter_voted",
              "type": "bool"
            },
            {
              "internalType": "uint256",
              "name": "voter_vote",
              "type": "uint256"
            },
            {
              "internalType": "string",
              "name": "voter_ipfs",
              "type": "string"
            }
          ],
          "internalType": "struct Voting.Voter",
          "name": "",
          "type": "tuple"
        }
      ],
      "stateMutability": "view",
      "type": "function",
      "constant": true
    },
    {
      "inputs": [],
      "name": "getVotedVoterList",
      "outputs": [
        {
          "internalType": "address[]",
          "name": "",
          "type": "address[]"
        }
      ],
      "stateMutability": "view",
      "type": "function",
      "constant": true
    },
    {
      "inputs": [],
      "name": "getVoterData",
      "outputs": [
        {
          "components": [
            {
              "internalType": "uint256",
              "name": "voter_voterId",
              "type": "uint256"
            },
            {
              "internalType": "string",
              "name": "voter_name",
              "type": "string"
            },
            {
              "internalType": "address",
              "name": "voter_address",
              "type": "address"
            },
            {
              "internalType": "uint256",
              "name": "voter_age",
              "type": "uint256"
            },
            {
              "internalType": "uint256",
              "name": "voter_allowed",
              "type": "uint256"
            },
            {
              "internalType": "bool",
              "name": "voter_voted",
              "type": "bool"
            },
            {
              "internalType": "uint256",
              "name": "voter_vote",
              "type": "uint256"
            },
            {
              "internalType": "string",
              "name": "voter_ipfs",
              "type": "string"
            }
          ],
          "internalType": "struct Voting.Voter",
          "name": "",
          "type": "tuple"
        }
      ],
      "stateMutability": "view",
      "type": "function",
      "constant": true
    },
    {
      "inputs": [],
      "name": "getVoterList",
      "outputs": [
        {
          "internalType": "address[]",
          "name": "",
          "type": "address[]"
        }
      ],
      "stateMutability": "view",
      "type": "function",
      "constant": true
    },
    {
      "inputs": [],
      "name": "getWinnerDetails",
      "outputs": [
        {
          "internalType": "uint256",
          "name": "",
          "type": "uint256"
        },
        {
          "internalType": "string",
          "name": "",
          "type": "string"
        },
        {
          "internalType": "address",
          "name": "",
          "type": "address"
        }
      ],
      "stateMutability": "view",
      "type": "function",
      "constant": true
    },
    {
      "inputs": [],
      "name": "getAllCandidateVotes",
      "outputs": [
        {
          "internalType": "address[]",
          "name": "",
          "type": "address[]"
        },
        {
          "internalType": "uint256[]",
          "name": "",
          "type": "uint256[]"
        }
      ],
      "stateMutability": "view",
      "type": "function",
      "constant": true
    }
  ],
  "bytecode": "0x608060405234801561001057600080fd5b50336002806101000a81548173ffffffffffffffffffffffffffffffffffffffff021916908373ffffffffffffffffffffffffffffffffffffffff1602179055506000600260006101000a81548160ff0219169083151502179055506001600260016101000a81548160ff0219169083151502179055506131b3806100966000396000f3fe608060405234801561001057600080fd5b50600436106101375760003560e01c80638e945685116100b8578063ba71bef01161007c578063ba71bef0146102e2578063dc6232d314610312578063ec39335f14610330578063ef66ad1a14610350578063f7522a831461036f578063f851a4401461038d57610137565b80638e9456851461024c578063a73889671461026a578063b28d92ae14610288578063b956b192146102a6578063b9be3152146102c457610137565b80635537a40d116100ff5780635537a40d146101e257806359f78468146101fe5780635f74bbde1461020857806362d73eb81461022457806370218b851461022e57610137565b806305ad45a41461013c578063122902a61461015a578063163c3e881461017857806322b0d3df146101945780632a466ac7146101b2575b600080fd5b6101446103ab565b6040516101519190611e3c565b60405180910390f35b6101626103b8565b60405161016f9190611ee7565b60405180910390f35b610192600480360381019061018d919061207e565b6104e6565b005b61019c61075e565b6040516101a99190612275565b60405180910390f35b6101cc60048036038101906101c791906122c3565b610973565b6040516101d99190612380565b60405180910390f35b6101fc60048036038101906101f791906123a2565b610b64565b005b610206610eea565b005b610222600480360381019061021d9190612441565b611046565b005b61022c611458565b005b6102366115b4565b6040516102439190612530565b60405180910390f35b610254611642565b6040516102619190612530565b60405180910390f35b6102726116d0565b60405161027f9190611e3c565b60405180910390f35b6102906116dc565b60405161029d9190612530565b60405180910390f35b6102ae61176a565b6040516102bb9190612561565b60405180910390f35b6102cc611781565b6040516102d99190611e3c565b60405180910390f35b6102fc60048036038101906102f791906122c3565b61178d565b6040516103099190612275565b60405180910390f35b61031a6119a4565b6040516103279190612561565b60405180910390f35b6103386119bb565b6040516103479392919061258b565b60405180910390f35b610358611b54565b604051610366929190612678565b60405180910390f35b610377611d25565b6040516103849190611e3c565b60405180910390f35b610395611d32565b6040516103a291906126af565b60405180910390f35b6000600680549050905090565b606060011515600260009054906101000a900460ff1615151480156103f0575060011515600260019054906101000a900460ff161515145b15610432576040518060400160405280601381526020017f566f74696e67206861732066696e69736865640000000000000000000000000081525090506104e3565b60011515600260009054906101000a900460ff161515148015610468575060001515600260019054906101000a900460ff161515145b156104aa576040518060400160405280601281526020017f566f74696e6720696e2050726f6772657373000000000000000000000000000081525090506104e3565b6040518060400160405280601281526020017f566f74696e67206e6f742d73746172746564000000000000000000000000000081525090505b90565b60001515600260009054906101000a900460ff1615151461053c576040517f08c379a00000000000000000000000000000000000000000000000000000000081526004016105339061273c565b60405180910390fd5b6012811015610580576040517f08c379a0000000000000000000000000000000000000000000000000000000008152600401610577906127a8565b60405180910390fd5b61058a6000611d56565b60006105966000611d6c565b90506000600760003373ffffffffffffffffffffffffffffffffffffffff1673ffffffffffffffffffffffffffffffffffffffff168152602001908152602001600020905060008160040154146105ec57600080fd5b600181600401819055508481600101908161060791906129d4565b50338160020160006101000a81548173ffffffffffffffffffffffffffffffffffffffff021916908373ffffffffffffffffffffffffffffffffffffffff1602179055508281600301819055508181600001819055506103e8816006018190555060008160050160006101000a81548160ff0219169083151502179055508381600701908161069691906129d4565b506006339080600181540180825580915050600190039060005260206000200160009091909190916101000a81548173ffffffffffffffffffffffffffffffffffffffff021916908373ffffffffffffffffffffffffffffffffffffffff160217905550817f857b2adbd2e45ad29fb12de08119adc1e41e766d81a8aff715db0992077e10d586338685600401548660050160009054906101000a900460ff1687600601548b60405161074f9796959493929190612aa6565b60405180910390a25050505050565b610766611d7a565b600760003373ffffffffffffffffffffffffffffffffffffffff1673ffffffffffffffffffffffffffffffffffffffff16815260200190815260200160002060405180610100016040529081600082015481526020016001820180546107cb906127f7565b80601f01602080910402602001604051908101604052809291908181526020018280546107f7906127f7565b80156108445780601f1061081957610100808354040283529160200191610844565b820191906000526020600020905b81548152906001019060200180831161082757829003601f168201915b505050505081526020016002820160009054906101000a900473ffffffffffffffffffffffffffffffffffffffff1673ffffffffffffffffffffffffffffffffffffffff1673ffffffffffffffffffffffffffffffffffffffff16815260200160038201548152602001600482015481526020016005820160009054906101000a900460ff16151515158152602001600682015481526020016007820180546108ec906127f7565b80601f0160208091040260200160405190810160405280929190818152602001828054610918906127f7565b80156109655780601f1061093a57610100808354040283529160200191610965565b820191906000526020600020905b81548152906001019060200180831161094857829003601f168201915b505050505081525050905090565b61097b611dd7565b600460008373ffffffffffffffffffffffffffffffffffffffff1673ffffffffffffffffffffffffffffffffffffffff1681526020019081526020016000206040518060c001604052908160008201548152602001600182015481526020016002820180546109e9906127f7565b80601f0160208091040260200160405190810160405280929190818152602001828054610a15906127f7565b8015610a625780601f10610a3757610100808354040283529160200191610a62565b820191906000526020600020905b815481529060010190602001808311610a4557829003601f168201915b50505050508152602001600382015481526020016004820160009054906101000a900473ffffffffffffffffffffffffffffffffffffffff1673ffffffffffffffffffffffffffffffffffffffff1673ffffffffffffffffffffffffffffffffffffffff168152602001600582018054610adb906127f7565b80601f0160208091040260200160405190810160405280929190818152602001828054610b07906127f7565b8015610b545780601f10610b2957610100808354040283529160200191610b54565b820191906000526020600020905b815481529060010190602001808311610b3757829003601f168201915b5050505050815250509050919050565b3373ffffffffffffffffffffffffffffffffffffffff1660028054906101000a900473ffffffffffffffffffffffffffffffffffffffff1673ffffffffffffffffffffffffffffffffffffffff1614610bf2576040517f08c379a0000000000000000000000000000000000000000000000000000000008152600401610be990612b95565b60405180910390fd5b60011515600260019054906101000a900460ff16151514610c48576040517f08c379a0000000000000000000000000000000000000000000000000000000008152600401610c3f90612c27565b60405180910390fd5b600073ffffffffffffffffffffffffffffffffffffffff16600460008673ffffffffffffffffffffffffffffffffffffffff1673ffffffffffffffffffffffffffffffffffffffff16815260200190815260200160002060040160009054906101000a900473ffffffffffffffffffffffffffffffffffffffff1673ffffffffffffffffffffffffffffffffffffffff1614610d19576040517f08c379a0000000000000000000000000000000000000000000000000000000008152600401610d1090612cb9565b60405180910390fd5b6012831015610d5d576040517f08c379a0000000000000000000000000000000000000000000000000000000008152600401610d5490612d4b565b60405180910390fd5b610d676001611d56565b6000610d736001611d6c565b90506000600460008773ffffffffffffffffffffffffffffffffffffffff1673ffffffffffffffffffffffffffffffffffffffff168152602001908152602001600020905084816001018190555083816002019081610dd291906129d4565b5081816000018190555060008160030181905550858160040160006101000a81548173ffffffffffffffffffffffffffffffffffffffff021916908373ffffffffffffffffffffffffffffffffffffffff16021790555082816005019081610e3a91906129d4565b506003869080600181540180825580915050600190039060005260206000200160009091909190916101000a81548173ffffffffffffffffffffffffffffffffffffffff021916908373ffffffffffffffffffffffffffffffffffffffff160217905550817f0663dbecdfdc254a4cb464b55248eee8ea576540b2e7dfcc4834c5216636af52868684600301548a88604051610eda959493929190612d6b565b60405180910390a2505050505050565b3373ffffffffffffffffffffffffffffffffffffffff1660028054906101000a900473ffffffffffffffffffffffffffffffffffffffff1673ffffffffffffffffffffffffffffffffffffffff1614610f78576040517f08c379a0000000000000000000000000000000000000000000000000000000008152600401610f6f90612b95565b60405180910390fd5b60011515600260009054906101000a900460ff161515148015610fae575060001515600260019054906101000a900460ff161515145b610fb757600080fd5b6000600260006101000a81548160ff0219169083151502179055506001600260016101000a81548160ff0219169083151502179055507f3b33606474e3fbe42d10a18ef4c77e879c4d5dc0d6ca1417ee963a24878f606b600260009054906101000a900460ff16600260019054906101000a900460ff1660405161103c929190612dcc565b60405180910390a1565b81816000805b600380549050811015611172578373ffffffffffffffffffffffffffffffffffffffff166003828154811061108457611083612df5565b5b9060005260206000200160009054906101000a900473ffffffffffffffffffffffffffffffffffffffff1673ffffffffffffffffffffffffffffffffffffffff1614801561115157508260046000600384815481106110e6576110e5612df5565b5b9060005260206000200160009054906101000a900473ffffffffffffffffffffffffffffffffffffffff1673ffffffffffffffffffffffffffffffffffffffff1673ffffffffffffffffffffffffffffffffffffffff16815260200190815260200160002060000154145b1561115f5760019150611172565b808061116a90612e53565b91505061104c565b50806111b3576040517f08c379a00000000000000000000000000000000000000000000000000000000081526004016111aa90612ee7565b60405180910390fd5b6000600760003373ffffffffffffffffffffffffffffffffffffffff1673ffffffffffffffffffffffffffffffffffffffff16815260200190815260200160002090508060050160009054906101000a900460ff1615611248576040517f08c379a000000000000000000000000000000000000000000000000000000000815260040161123f90612f53565b60405180910390fd5b60011515600260009054906101000a900460ff1615151461129e576040517f08c379a000000000000000000000000000000000000000000000000000000000815260040161129590612fe5565b60405180910390fd5b60008160040154036112e5576040517f08c379a00000000000000000000000000000000000000000000000000000000081526004016112dc90613051565b60405180910390fd5b6000600460008873ffffffffffffffffffffffffffffffffffffffff1673ffffffffffffffffffffffffffffffffffffffff168152602001908152602001600020600001540361136a576040517f08c379a0000000000000000000000000000000000000000000000000000000008152600401611361906130bd565b60405180910390fd5b60018160050160006101000a81548160ff0219169083151502179055508481600601819055506005339080600181540180825580915050600190039060005260206000200160009091909190916101000a81548173ffffffffffffffffffffffffffffffffffffffff021916908373ffffffffffffffffffffffffffffffffffffffff1602179055508060040154600460008873ffffffffffffffffffffffffffffffffffffffff1673ffffffffffffffffffffffffffffffffffffffff168152602001908152602001600020600301600082825461144991906130dd565b92505081905550505050505050565b60028054906101000a900473ffffffffffffffffffffffffffffffffffffffff1673ffffffffffffffffffffffffffffffffffffffff163373ffffffffffffffffffffffffffffffffffffffff16146114e6576040517f08c379a00000000000000000000000000000000000000000000000000000000081526004016114dd9061315d565b60405180910390fd5b60001515600260009054906101000a900460ff16151514801561151c575060011515600260019054906101000a900460ff161515145b61152557600080fd5b6001600260006101000a81548160ff0219169083151502179055506000600260016101000a81548160ff0219169083151502179055507f3b33606474e3fbe42d10a18ef4c77e879c4d5dc0d6ca1417ee963a24878f606b600260009054906101000a900460ff16600260019054906101000a900460ff166040516115aa929190612dcc565b60405180910390a1565b6060600380548060200260200160405190810160405280929190818152602001828054801561163857602002820191906000526020600020905b8160009054906101000a900473ffffffffffffffffffffffffffffffffffffffff1673ffffffffffffffffffffffffffffffffffffffff16815260200190600101908083116115ee575b5050505050905090565b606060058054806020026020016040519081016040528092919081815260200182805480156116c657602002820191906000526020600020905b8160009054906101000a900473ffffffffffffffffffffffffffffffffffffffff1673ffffffffffffffffffffffffffffffffffffffff168152602001906001019080831161167c575b5050505050905090565b60018060000154905081565b6060600680548060200260200160405190810160405280929190818152602001828054801561176057602002820191906000526020600020905b8160009054906101000a900473ffffffffffffffffffffffffffffffffffffffff1673ffffffffffffffffffffffffffffffffffffffff1681526020019060010190808311611716575b5050505050905090565b6000600260019054906101000a900460ff16905090565b60008060000154905081565b611795611d7a565b600760008373ffffffffffffffffffffffffffffffffffffffff1673ffffffffffffffffffffffffffffffffffffffff16815260200190815260200160002060405180610100016040529081600082015481526020016001820180546117fa906127f7565b80601f0160208091040260200160405190810160405280929190818152602001828054611826906127f7565b80156118735780601f1061184857610100808354040283529160200191611873565b820191906000526020600020905b81548152906001019060200180831161185657829003601f168201915b505050505081526020016002820160009054906101000a900473ffffffffffffffffffffffffffffffffffffffff1673ffffffffffffffffffffffffffffffffffffffff1673ffffffffffffffffffffffffffffffffffffffff16815260200160038201548152602001600482015481526020016005820160009054906101000a900460ff161515151581526020016006820154815260200160078201805461191b906127f7565b80601f0160208091040260200160405190810160405280929190818152602001828054611947906127f7565b80156119945780601f1061196957610100808354040283529160200191611994565b820191906000526020600020905b81548152906001019060200180831161197757829003601f168201915b5050505050815250509050919050565b6000600260009054906101000a900460ff16905090565b60006060600080600090506060600080600090505b600380549050811015611b42576000600382815481106119f3576119f2612df5565b5b9060005260206000200160009054906101000a900473ffffffffffffffffffffffffffffffffffffffff1690506000600460008373ffffffffffffffffffffffffffffffffffffffff1673ffffffffffffffffffffffffffffffffffffffff16815260200190815260200160002090508581600301541115611b2d5780600301549550806002018054611a85906127f7565b80601f0160208091040260200160405190810160405280929190818152602001828054611ab1906127f7565b8015611afe5780601f10611ad357610100808354040283529160200191611afe565b820191906000526020600020905b815481529060010190602001808311611ae157829003601f168201915b505050505094508060040160009054906101000a900473ffffffffffffffffffffffffffffffffffffffff1693505b50508080611b3a90612e53565b9150506119d0565b50828282955095509550505050909192565b606080600060038054905067ffffffffffffffff811115611b7857611b77611f27565b5b604051908082528060200260200182016040528015611ba65781602001602082028036833780820191505090505b509050600060038054905067ffffffffffffffff811115611bca57611bc9611f27565b5b604051908082528060200260200182016040528015611bf85781602001602082028036833780820191505090505b50905060005b600380549050811015611d1857600060038281548110611c2157611c20612df5565b5b9060005260206000200160009054906101000a900473ffffffffffffffffffffffffffffffffffffffff1690506000600460008373ffffffffffffffffffffffffffffffffffffffff1673ffffffffffffffffffffffffffffffffffffffff168152602001908152602001600020905081858481518110611ca557611ca4612df5565b5b602002602001019073ffffffffffffffffffffffffffffffffffffffff16908173ffffffffffffffffffffffffffffffffffffffff16815250508060030154848481518110611cf757611cf6612df5565b5b60200260200101818152505050508080611d1090612e53565b915050611bfe565b5081819350935050509091565b6000600380549050905090565b60028054906101000a900473ffffffffffffffffffffffffffffffffffffffff1681565b6001816000016000828254019250508190555050565b600081600001549050919050565b6040518061010001604052806000815260200160608152602001600073ffffffffffffffffffffffffffffffffffffffff168152602001600081526020016000815260200160001515815260200160008152602001606081525090565b6040518060c0016040528060008152602001600081526020016060815260200160008152602001600073ffffffffffffffffffffffffffffffffffffffff168152602001606081525090565b6000819050919050565b611e3681611e23565b82525050565b6000602082019050611e516000830184611e2d565b92915050565b600081519050919050565b600082825260208201905092915050565b60005b83811015611e91578082015181840152602081019050611e76565b60008484015250505050565b6000601f19601f8301169050919050565b6000611eb982611e57565b611ec38185611e62565b9350611ed3818560208601611e73565b611edc81611e9d565b840191505092915050565b60006020820190508181036000830152611f018184611eae565b905092915050565b6000604051905090565b600080fd5b600080fd5b600080fd5b600080fd5b7f4e487b7100000000000000000000000000000000000000000000000000000000600052604160045260246000fd5b611f5f82611e9d565b810181811067ffffffffffffffff82111715611f7e57611f7d611f27565b5b80604052505050565b6000611f91611f09565b9050611f9d8282611f56565b919050565b600067ffffffffffffffff821115611fbd57611fbc611f27565b5b611fc682611e9d565b9050602081019050919050565b82818337600083830152505050565b6000611ff5611ff084611fa2565b611f87565b90508281526020810184848401111561201157612010611f22565b5b61201c848285611fd3565b509392505050565b600082601f83011261203957612038611f1d565b5b8135612049848260208601611fe2565b91505092915050565b61205b81611e23565b811461206657600080fd5b50565b60008135905061207881612052565b92915050565b60008060006060848603121561209757612096611f13565b5b600084013567ffffffffffffffff8111156120b5576120b4611f18565b5b6120c186828701612024565b935050602084013567ffffffffffffffff8111156120e2576120e1611f18565b5b6120ee86828701612024565b92505060406120ff86828701612069565b9150509250925092565b61211281611e23565b82525050565b600082825260208201905092915050565b600061213482611e57565b61213e8185612118565b935061214e818560208601611e73565b61215781611e9d565b840191505092915050565b600073ffffffffffffffffffffffffffffffffffffffff82169050919050565b600061218d82612162565b9050919050565b61219d81612182565b82525050565b60008115159050919050565b6121b8816121a3565b82525050565b6000610100830160008301516121d76000860182612109565b50602083015184820360208601526121ef8282612129565b91505060408301516122046040860182612194565b5060608301516122176060860182612109565b50608083015161222a6080860182612109565b5060a083015161223d60a08601826121af565b5060c083015161225060c0860182612109565b5060e083015184820360e08601526122688282612129565b9150508091505092915050565b6000602082019050818103600083015261228f81846121be565b905092915050565b6122a081612182565b81146122ab57600080fd5b50565b6000813590506122bd81612297565b92915050565b6000602082840312156122d9576122d8611f13565b5b60006122e7848285016122ae565b91505092915050565b600060c0830160008301516123086000860182612109565b50602083015161231b6020860182612109565b50604083015184820360408601526123338282612129565b91505060608301516123486060860182612109565b50608083015161235b6080860182612194565b5060a083015184820360a08601526123738282612129565b9150508091505092915050565b6000602082019050818103600083015261239a81846122f0565b905092915050565b600080600080608085870312156123bc576123bb611f13565b5b60006123ca878288016122ae565b94505060206123db87828801612069565b935050604085013567ffffffffffffffff8111156123fc576123fb611f18565b5b61240887828801612024565b925050606085013567ffffffffffffffff81111561242957612428611f18565b5b61243587828801612024565b91505092959194509250565b6000806040838503121561245857612457611f13565b5b6000612466858286016122ae565b925050602061247785828601612069565b9150509250929050565b600081519050919050565b600082825260208201905092915050565b6000819050602082019050919050565b60006124b98383612194565b60208301905092915050565b6000602082019050919050565b60006124dd82612481565b6124e7818561248c565b93506124f28361249d565b8060005b8381101561252357815161250a88826124ad565b9750612515836124c5565b9250506001810190506124f6565b5085935050505092915050565b6000602082019050818103600083015261254a81846124d2565b905092915050565b61255b816121a3565b82525050565b60006020820190506125766000830184612552565b92915050565b61258581612182565b82525050565b60006060820190506125a06000830186611e2d565b81810360208301526125b28185611eae565b90506125c1604083018461257c565b949350505050565b600081519050919050565b600082825260208201905092915050565b6000819050602082019050919050565b60006126018383612109565b60208301905092915050565b6000602082019050919050565b6000612625826125c9565b61262f81856125d4565b935061263a836125e5565b8060005b8381101561266b57815161265288826125f5565b975061265d8361260d565b92505060018101905061263e565b5085935050505092915050565b6000604082019050818103600083015261269281856124d2565b905081810360208301526126a6818461261a565b90509392505050565b60006020820190506126c4600083018461257c565b92915050565b7f456c656374696f6e20696e2070726f67726573732c205269676874207265766f60008201527f6b65642100000000000000000000000000000000000000000000000000000000602082015250565b6000612726602483611e62565b9150612731826126ca565b604082019050919050565b6000602082019050818103600083015261275581612719565b9050919050565b7f4f70732120596f752061726520756e6465726167650000000000000000000000600082015250565b6000612792601583611e62565b915061279d8261275c565b602082019050919050565b600060208201905081810360008301526127c181612785565b9050919050565b7f4e487b7100000000000000000000000000000000000000000000000000000000600052602260045260246000fd5b6000600282049050600182168061280f57607f821691505b602082108103612822576128216127c8565b5b50919050565b60008190508160005260206000209050919050565b60006020601f8301049050919050565b600082821b905092915050565b60006008830261288a7fffffffffffffffffffffffffffffffffffffffffffffffffffffffffffffffff8261284d565b612894868361284d565b95508019841693508086168417925050509392505050565b6000819050919050565b60006128d16128cc6128c784611e23565b6128ac565b611e23565b9050919050565b6000819050919050565b6128eb836128b6565b6128ff6128f7826128d8565b84845461285a565b825550505050565b600090565b612914612907565b61291f8184846128e2565b505050565b5b818110156129435761293860008261290c565b600181019050612925565b5050565b601f8211156129885761295981612828565b6129628461283d565b81016020851015612971578190505b61298561297d8561283d565b830182612924565b50505b505050565b600082821c905092915050565b60006129ab6000198460080261298d565b1980831691505092915050565b60006129c4838361299a565b9150826002028217905092915050565b6129dd82611e57565b67ffffffffffffffff8111156129f6576129f5611f27565b5b612a0082546127f7565b612a0b828285612947565b600060209050601f831160018114612a3e5760008415612a2c578287015190505b612a3685826129b8565b865550612a9e565b601f198416612a4c86612828565b60005b82811015612a7457848901518255600182019150602085019450602081019050612a4f565b86831015612a915784890151612a8d601f89168261299a565b8355505b6001600288020188555050505b505050505050565b600060e0820190508181036000830152612ac0818a611eae565b9050612acf602083018961257c565b612adc6040830188611e2d565b612ae96060830187611e2d565b612af66080830186612552565b612b0360a0830185611e2d565b81810360c0830152612b158184611eae565b905098975050505050505050565b7f5468697320697320616e2061646d696e2066756e6374696f6e2c20506c65617360008201527f6520436f6e746163742061646d696e0000000000000000000000000000000000602082015250565b6000612b7f602f83611e62565b9150612b8a82612b23565b604082019050919050565b60006020820190508181036000830152612bae81612b72565b9050919050565b7f596f752063616e206e6f74206164642063616e646964617465207768656e206560008201527f6c656374696f6e20697320696e2070726f677265737300000000000000000000602082015250565b6000612c11603683611e62565b9150612c1c82612bb5565b604082019050919050565b60006020820190508181036000830152612c4081612c04565b9050919050565b7f43616e64696461746520776974682074686973206164647265737320616c726560008201527f6164792065786973747300000000000000000000000000000000000000000000602082015250565b6000612ca3602a83611e62565b9150612cae82612c47565b604082019050919050565b60006020820190508181036000830152612cd281612c96565b9050919050565b7f4f70732120796f7520617265206e6f7420656c696769626c6520746f2062652060008201527f612043616e646964617465000000000000000000000000000000000000000000602082015250565b6000612d35602b83611e62565b9150612d4082612cd9565b604082019050919050565b60006020820190508181036000830152612d6481612d28565b9050919050565b600060a082019050612d806000830188611e2d565b8181036020830152612d928187611eae565b9050612da16040830186611e2d565b612dae606083018561257c565b8181036080830152612dc08184611eae565b90509695505050505050565b6000604082019050612de16000830185612552565b612dee6020830184612552565b9392505050565b7f4e487b7100000000000000000000000000000000000000000000000000000000600052603260045260246000fd5b7f4e487b7100000000000000000000000000000000000000000000000000000000600052601160045260246000fd5b6000612e5e82611e23565b91507fffffffffffffffffffffffffffffffffffffffffffffffffffffffffffffffff8203612e9057612e8f612e24565b5b600182019050919050565b7f496e76616c69642063616e646964617465206f7220766f746520494400000000600082015250565b6000612ed1601c83611e62565b9150612edc82612e9b565b602082019050919050565b60006020820190508181036000830152612f0081612ec4565b9050919050565b7f596f75206861766520616c726561647920766f74656400000000000000000000600082015250565b6000612f3d601683611e62565b9150612f4882612f07565b602082019050919050565b60006020820190508181036000830152612f6c81612f30565b9050919050565b7f596f752063616e6e6f7420766f7465206e6f772c20776169742074696c6c207460008201527f686520706f6c6c206973206f70656e656420666f7220766f74696e6700000000602082015250565b6000612fcf603c83611e62565b9150612fda82612f73565b604082019050919050565b60006020820190508181036000830152612ffe81612fc2565b9050919050565b7f796f752068617665206e6f20726967687420746f20766f746500000000000000600082015250565b600061303b601983611e62565b915061304682613005565b602082019050919050565b6000602082019050818103600083015261306a8161302e565b9050919050565b7f496e76616c69642063616e646964617465206164647265737300000000000000600082015250565b60006130a7601983611e62565b91506130b282613071565b602082019050919050565b600060208201905081810360008301526130d68161309a565b9050919050565b60006130e882611e23565b91506130f383611e23565b925082820190508082111561310b5761310a612e24565b5b92915050565b7f4f6e6c792041646d696e2063616e20737461727420456c656374696f6e000000600082015250565b6000613147601d83611e62565b915061315282613111565b602082019050919050565b600060208201905081810360008301526131768161313a565b905091905056fea2646970667358221220cd7f6f9e142ce5da1261cea832cd84df90f13abc247b0e94b71752f03e68574664736f6c63430008110033",
  "immutableReferences": {},
  "source": "//SPDX-License-Identifier: UNLICENSED\r\n\r\npragma solidity ^0.8.0;\r\n\r\nimport \"@openzeppelin/contracts/utils/Counters.sol\";\r\n\r\ncontract Voting {\r\n    using Counters for Counters.Counter;\r\n\r\n    Counters.Counter public _voterId;\r\n    Counters.Counter public _candidateId;\r\n\r\n    bool started;\r\n    bool ended;\r\n\r\n    /*<---------------------Election Status---------------->*/\r\n    constructor() {\r\n        admin = msg.sender;\r\n        started = false;\r\n        ended = true;\r\n    }\r\n\r\n    event electiontime(bool started, bool ended);\r\n\r\n    function getStartedValue() public view returns (bool) {\r\n        return started;\r\n    }\r\n\r\n    function getEndedValue() public view returns (bool) {\r\n        return ended;\r\n    }\r\n\r\n    address public admin;\r\n\r\n    modifier onlyAdmin() {\r\n        require(\r\n            admin == msg.sender,\r\n            \"This is an admin function, Please Contact admin\"\r\n        );\r\n        _;\r\n    }\r\n\r\n    function endElection() public onlyAdmin {\r\n        require(started == true && ended == false);\r\n\r\n        started = false;\r\n        ended = true;\r\n\r\n        emit electiontime(started, ended);\r\n    }\r\n\r\n    function startElection() public {\r\n        require(msg.sender == admin, \"Only Admin can start Election\");\r\n        require(started == false && ended == true);\r\n\r\n        started = true;\r\n        ended = false;\r\n\r\n        emit electiontime(started, ended);\r\n    }\r\n\r\n    function getElectionStatus() public view returns (string memory) {\r\n        if (started == true && ended == true) {\r\n            return \"Voting has finished\";\r\n        }\r\n\r\n        if (started == true && ended == false) {\r\n            return \"Voting in Progress\";\r\n        }\r\n\r\n        return \"Voting not-started\";\r\n    }\r\n\r\n    /* <-----------------------Candidate Details---->  */\r\n    struct Candidate {\r\n        uint256 candidateId;\r\n        uint256 age;\r\n        string name;\r\n        uint256 voteCount;\r\n        address _address;\r\n        string ipfs;\r\n    }\r\n\r\n    event CreateCandidate(\r\n        uint256 indexed candidateId,\r\n        uint256 age,\r\n        string name,\r\n        uint256 voteCount,\r\n        address _address,\r\n        string ipfs\r\n    );\r\n\r\n    address[] private candidateAddress;\r\n    mapping(address => Candidate) private candidates;\r\n\r\n    //<----------------voters details----------->\r\n\r\n    address[] private votedVoters;\r\n    address[] private votersAddress;\r\n    mapping(address => Voter) private voters;\r\n\r\n    struct Voter {\r\n        uint256 voter_voterId;\r\n        string voter_name;\r\n        address voter_address;\r\n        uint256 voter_age;\r\n        uint256 voter_allowed;\r\n        bool voter_voted;\r\n        uint256 voter_vote;\r\n        string voter_ipfs;\r\n    }\r\n    event CreatedVoter(\r\n        uint256 indexed voter_voterId,\r\n        string voter_name,\r\n        address voter_address,\r\n        uint256 voter_age,\r\n        uint256 voter_allowed,\r\n        bool voter_voted,\r\n        uint256 voter_vote,\r\n        string voter_ipfs\r\n    );\r\n\r\n    function addCandidate(\r\n        address _address,\r\n        uint256 _age,\r\n        string memory _name,\r\n        string memory _ipfs\r\n    ) public onlyAdmin {\r\n        require(\r\n            ended == true,\r\n            \"You can not add candidate when election is in progress\"\r\n        );\r\n        require(\r\n            candidates[_address]._address == address(0),\r\n            \"Candidate with this address already exists\"\r\n        ); // check if candidate address already exists\r\n        require(_age >= 18, \"Ops! you are not eligible to be a Candidate\");\r\n        _candidateId.increment();\r\n        uint256 idNumber = _candidateId.current();\r\n\r\n        Candidate storage candidate = candidates[_address];\r\n\r\n        candidate.age = _age;\r\n        candidate.name = _name;\r\n        candidate.candidateId = idNumber;\r\n        candidate.voteCount = 0;\r\n        candidate._address = _address;\r\n        candidate.ipfs = _ipfs;\r\n\r\n        candidateAddress.push(_address);\r\n\r\n        emit CreateCandidate(\r\n            idNumber,\r\n            _age,\r\n            _name,\r\n            candidate.voteCount,\r\n            _address,\r\n            _ipfs\r\n        );\r\n    }\r\n\r\n    function getCandidate() public view returns (address[] memory) {\r\n        return candidateAddress;\r\n    }\r\n\r\n    function getCandidateLength() public view returns (uint256) {\r\n        return candidateAddress.length;\r\n    }\r\n\r\n    function getCandidateData(address _address)\r\n        public\r\n        view\r\n        returns (Candidate memory)\r\n    {\r\n        return (candidates[_address]);\r\n    }\r\n\r\n    function Addvoter(\r\n        string memory _name,\r\n        string memory _ipfs,\r\n        uint256 _age\r\n    ) public {\r\n        require(started == false, \"Election in progress, Right revoked!\");\r\n        require(_age >= 18, \"Ops! You are underage\");\r\n\r\n        _voterId.increment();\r\n\r\n        uint256 idNumber = _voterId.current();\r\n        Voter storage voter = voters[msg.sender];\r\n        require(voter.voter_allowed == 0);\r\n\r\n        voter.voter_allowed = 1;\r\n        voter.voter_name = _name;\r\n        voter.voter_address = msg.sender;\r\n        voter.voter_age = _age;\r\n        voter.voter_voterId = idNumber;\r\n        voter.voter_vote = 1000;\r\n        voter.voter_voted = false;\r\n        voter.voter_ipfs = _ipfs;\r\n\r\n        votersAddress.push(msg.sender);\r\n\r\n        emit CreatedVoter(\r\n            idNumber,\r\n            _name,\r\n            msg.sender,\r\n            _age,\r\n            voter.voter_allowed,\r\n            voter.voter_voted,\r\n            voter.voter_vote,\r\n            _ipfs\r\n        );\r\n    }\r\n\r\n    modifier voteIdExists(address _candidateAddress, uint256 _candidateVoteId) {\r\n        bool voteExists = false;\r\n        for (uint256 i = 0; i < candidateAddress.length; i++) {\r\n            if (\r\n                candidateAddress[i] == _candidateAddress &&\r\n                candidates[candidateAddress[i]].candidateId == _candidateVoteId\r\n            ) {\r\n                voteExists = true;\r\n                break;\r\n            }\r\n        }\r\n        require(voteExists, \"Invalid candidate or vote ID\");\r\n        _;\r\n    }\r\n\r\n    function vote(address _candidateAddress, uint256 _candidateVoteId)\r\n        public\r\n        voteIdExists(_candidateAddress, _candidateVoteId)\r\n    {\r\n        Voter storage voter = voters[msg.sender];\r\n\r\n        require(!voter.voter_voted, \"You have already voted\");\r\n        require(\r\n            started == true,\r\n            \"You cannot vote now, wait till the poll is opened for voting\"\r\n        );\r\n        require(voter.voter_allowed != 0, \"you have no right to vote\");\r\n        require(\r\n            candidates[_candidateAddress].candidateId != 0,\r\n            \"Invalid candidate address\"\r\n        );\r\n\r\n        voter.voter_voted = true;\r\n        voter.voter_vote = _candidateVoteId;\r\n\r\n        votedVoters.push(msg.sender);\r\n\r\n        candidates[_candidateAddress].voteCount += voter.voter_allowed;\r\n    }\r\n\r\n    function getVoterLength() public view returns (uint256) {\r\n        return votersAddress.length;\r\n    }\r\n\r\n    function getVoterDetails(address _address)\r\n        public\r\n        view\r\n        returns (Voter memory)\r\n    {\r\n        return (voters[_address]);\r\n    }\r\n\r\n    function getVotedVoterList() public view returns (address[] memory) {\r\n        return votedVoters;\r\n    }\r\n\r\n    function getVoterData() public view returns (Voter memory) {\r\n        return (voters[msg.sender]);\r\n    }\r\n\r\n    function getVoterList() public view returns (address[] memory) {\r\n        return votersAddress;\r\n    }\r\n\r\n    function getWinnerDetails()\r\n        public\r\n        view\r\n        returns (\r\n            uint256,\r\n            string memory,\r\n            address\r\n        )\r\n    {\r\n        uint256 maxVotes = 0;\r\n        string memory winnerName;\r\n        address winnerAddress;\r\n        for (uint256 i = 0; i < candidateAddress.length; i++) {\r\n            address candidateAddr = candidateAddress[i];\r\n            Candidate storage candidate = candidates[candidateAddr];\r\n            if (candidate.voteCount > maxVotes) {\r\n                maxVotes = candidate.voteCount;\r\n                winnerName = candidate.name;\r\n                winnerAddress = candidate._address;\r\n            }\r\n        }\r\n        return (maxVotes, winnerName, winnerAddress);\r\n    }\r\n\r\n    function getAllCandidateVotes()\r\n        public\r\n        view\r\n        returns (address[] memory, uint256[] memory)\r\n    {\r\n        \r\n        address[] memory candidateAddresses = new address[](\r\n            candidateAddress.length\r\n        );\r\n        uint256[] memory candidateVotes = new uint256[](\r\n            candidateAddress.length\r\n        );\r\n        for (uint256 i = 0; i < candidateAddress.length; i++) {\r\n            address candidateAddr = candidateAddress[i];\r\n            Candidate storage candidate = candidates[candidateAddr];\r\n            candidateAddresses[i] = candidateAddr;\r\n            candidateVotes[i] = candidate.voteCount;\r\n        }\r\n        return (candidateAddresses, candidateVotes);\r\n    }\r\n}\r\n",
  "sourcePath": "C:\\Users\\LILLY\\projects\\Voting_app\\Client\\contracts\\Voting.sol",
  "compiler": {
    "name": "solc",
    "version": "0.8.17+commit.8df45f5f.Emscripten.clang"
  },
  "schemaVersion": "3.4.11",
  "updatedAt": "2023-01-21T21:03:24.413Z",
  "networkType": "ethereum",
  "devdoc": {
    "kind": "dev",
    "methods": {},
    "version": 1
  },
  "userdoc": {
    "kind": "user",
    "methods": {},
    "version": 1
  }
}