{
  "contractName": "Voting",
  "abi": [
    {
      "inputs": [],
      "stateMutability": "nonpayable",
      "type": "constructor"
    },
    {
      "anonymous": false,
      "inputs": [
        {
          "indexed": true,
          "internalType": "uint256",
          "name": "id",
          "type": "uint256"
        },
        {
          "indexed": false,
          "internalType": "uint256",
          "name": "age",
          "type": "uint256"
        },
        {
          "indexed": false,
          "internalType": "string",
          "name": "name",
          "type": "string"
        },
        {
          "indexed": false,
          "internalType": "uint256",
          "name": "voteCount",
          "type": "uint256"
        },
        {
          "indexed": false,
          "internalType": "address",
          "name": "_address",
          "type": "address"
        },
        {
          "indexed": false,
          "internalType": "string",
          "name": "ipfs",
          "type": "string"
        }
      ],
      "name": "CreateCandidate",
      "type": "event"
    },
    {
      "anonymous": false,
      "inputs": [
        {
          "indexed": true,
          "internalType": "uint256",
          "name": "voter_voterId",
          "type": "uint256"
        },
        {
          "indexed": false,
          "internalType": "string",
          "name": "voter_name",
          "type": "string"
        },
        {
          "indexed": false,
          "internalType": "address",
          "name": "voter_address",
          "type": "address"
        },
        {
          "indexed": false,
          "internalType": "uint256",
          "name": "voter_age",
          "type": "uint256"
        },
        {
          "indexed": false,
          "internalType": "uint256",
          "name": "voter_allowed",
          "type": "uint256"
        },
        {
          "indexed": false,
          "internalType": "bool",
          "name": "voter_voted",
          "type": "bool"
        },
        {
          "indexed": false,
          "internalType": "uint256",
          "name": "voter_vote",
          "type": "uint256"
        },
        {
          "indexed": false,
          "internalType": "string",
          "name": "voter_ipfs",
          "type": "string"
        }
      ],
      "name": "CreatedVoter",
      "type": "event"
    },
    {
      "anonymous": false,
      "inputs": [
        {
          "indexed": false,
          "internalType": "bool",
          "name": "started",
          "type": "bool"
        },
        {
          "indexed": false,
          "internalType": "bool",
          "name": "ended",
          "type": "bool"
        }
      ],
      "name": "electiontime",
      "type": "event"
    },
    {
      "inputs": [],
      "name": "_id",
      "outputs": [
        {
          "internalType": "uint256",
          "name": "_value",
          "type": "uint256"
        }
      ],
      "stateMutability": "view",
      "type": "function",
      "constant": true
    },
    {
      "inputs": [],
      "name": "_voterId",
      "outputs": [
        {
          "internalType": "uint256",
          "name": "_value",
          "type": "uint256"
        }
      ],
      "stateMutability": "view",
      "type": "function",
      "constant": true
    },
    {
      "inputs": [],
      "name": "admin",
      "outputs": [
        {
          "internalType": "address",
          "name": "",
          "type": "address"
        }
      ],
      "stateMutability": "view",
      "type": "function",
      "constant": true
    },
    {
      "inputs": [],
      "name": "getStartedValue",
      "outputs": [
        {
          "internalType": "bool",
          "name": "",
          "type": "bool"
        }
      ],
      "stateMutability": "view",
      "type": "function",
      "constant": true
    },
    {
      "inputs": [],
      "name": "getEndedValue",
      "outputs": [
        {
          "internalType": "bool",
          "name": "",
          "type": "bool"
        }
      ],
      "stateMutability": "view",
      "type": "function",
      "constant": true
    },
    {
      "inputs": [],
      "name": "endElection",
      "outputs": [],
      "stateMutability": "nonpayable",
      "type": "function"
    },
    {
      "inputs": [],
      "name": "startElection",
      "outputs": [],
      "stateMutability": "nonpayable",
      "type": "function"
    },
    {
      "inputs": [],
      "name": "getElectionStatus",
      "outputs": [
        {
          "internalType": "string",
          "name": "",
          "type": "string"
        }
      ],
      "stateMutability": "view",
      "type": "function",
      "constant": true
    },
    {
      "inputs": [
        {
          "internalType": "address",
          "name": "_address",
          "type": "address"
        },
        {
          "internalType": "uint256",
          "name": "_age",
          "type": "uint256"
        },
        {
          "internalType": "string",
          "name": "_name",
          "type": "string"
        },
        {
          "internalType": "string",
          "name": "_ipfs",
          "type": "string"
        }
      ],
      "name": "addCandidate",
      "outputs": [],
      "stateMutability": "nonpayable",
      "type": "function"
    },
    {
      "inputs": [],
      "name": "getCandidate",
      "outputs": [
        {
          "internalType": "address[]",
          "name": "",
          "type": "address[]"
        }
      ],
      "stateMutability": "view",
      "type": "function",
      "constant": true
    },
    {
      "inputs": [],
      "name": "getCandidateLength",
      "outputs": [
        {
          "internalType": "uint256",
          "name": "",
          "type": "uint256"
        }
      ],
      "stateMutability": "view",
      "type": "function",
      "constant": true
    },
    {
      "inputs": [
        {
          "internalType": "address",
          "name": "_address",
          "type": "address"
        }
      ],
      "name": "getCandidateData",
      "outputs": [
        {
          "components": [
            {
              "internalType": "uint256",
              "name": "id",
              "type": "uint256"
            },
            {
              "internalType": "uint256",
              "name": "age",
              "type": "uint256"
            },
            {
              "internalType": "string",
              "name": "name",
              "type": "string"
            },
            {
              "internalType": "uint256",
              "name": "voteCount",
              "type": "uint256"
            },
            {
              "internalType": "address",
              "name": "_address",
              "type": "address"
            },
            {
              "internalType": "string",
              "name": "ipfs",
              "type": "string"
            }
          ],
          "internalType": "struct Voting.CandidateStruct",
          "name": "",
          "type": "tuple"
        }
      ],
      "stateMutability": "view",
      "type": "function",
      "constant": true
    },
    {
      "inputs": [
        {
          "internalType": "string",
          "name": "_name",
          "type": "string"
        },
        {
          "internalType": "string",
          "name": "_ipfs",
          "type": "string"
        },
        {
          "internalType": "uint256",
          "name": "_age",
          "type": "uint256"
        }
      ],
      "name": "Addvoter",
      "outputs": [],
      "stateMutability": "nonpayable",
      "type": "function"
    },
    {
      "inputs": [
        {
          "internalType": "address",
          "name": "_candidateAddress",
          "type": "address"
        },
        {
          "internalType": "uint256",
          "name": "_candidateVoteId",
          "type": "uint256"
        }
      ],
      "name": "vote",
      "outputs": [],
      "stateMutability": "nonpayable",
      "type": "function"
    },
    {
      "inputs": [],
      "name": "getVoterLength",
      "outputs": [
        {
          "internalType": "uint256",
          "name": "",
          "type": "uint256"
        }
      ],
      "stateMutability": "view",
      "type": "function",
      "constant": true
    },
    {
      "inputs": [
        {
          "internalType": "address",
          "name": "_address",
          "type": "address"
        }
      ],
      "name": "getVoterDetails",
      "outputs": [
        {
          "components": [
            {
              "internalType": "uint256",
              "name": "voter_voterId",
              "type": "uint256"
            },
            {
              "internalType": "string",
              "name": "voter_name",
              "type": "string"
            },
            {
              "internalType": "address",
              "name": "voter_address",
              "type": "address"
            },
            {
              "internalType": "uint256",
              "name": "voter_age",
              "type": "uint256"
            },
            {
              "internalType": "uint256",
              "name": "voter_allowed",
              "type": "uint256"
            },
            {
              "internalType": "bool",
              "name": "voter_voted",
              "type": "bool"
            },
            {
              "internalType": "uint256",
              "name": "voter_vote",
              "type": "uint256"
            },
            {
              "internalType": "string",
              "name": "voter_ipfs",
              "type": "string"
            }
          ],
          "internalType": "struct Voting.VoterStruct",
          "name": "",
          "type": "tuple"
        }
      ],
      "stateMutability": "view",
      "type": "function",
      "constant": true
    },
    {
      "inputs": [],
      "name": "getVotedVoterList",
      "outputs": [
        {
          "internalType": "address[]",
          "name": "",
          "type": "address[]"
        }
      ],
      "stateMutability": "view",
      "type": "function",
      "constant": true
    },
    {
      "inputs": [],
      "name": "getVoterData",
      "outputs": [
        {
          "components": [
            {
              "internalType": "uint256",
              "name": "voter_voterId",
              "type": "uint256"
            },
            {
              "internalType": "string",
              "name": "voter_name",
              "type": "string"
            },
            {
              "internalType": "address",
              "name": "voter_address",
              "type": "address"
            },
            {
              "internalType": "uint256",
              "name": "voter_age",
              "type": "uint256"
            },
            {
              "internalType": "uint256",
              "name": "voter_allowed",
              "type": "uint256"
            },
            {
              "internalType": "bool",
              "name": "voter_voted",
              "type": "bool"
            },
            {
              "internalType": "uint256",
              "name": "voter_vote",
              "type": "uint256"
            },
            {
              "internalType": "string",
              "name": "voter_ipfs",
              "type": "string"
            }
          ],
          "internalType": "struct Voting.VoterStruct",
          "name": "",
          "type": "tuple"
        }
      ],
      "stateMutability": "view",
      "type": "function",
      "constant": true
    },
    {
      "inputs": [],
      "name": "getVoterList",
      "outputs": [
        {
          "internalType": "address[]",
          "name": "",
          "type": "address[]"
        }
      ],
      "stateMutability": "view",
      "type": "function",
      "constant": true
    },
    {
      "inputs": [],
      "name": "getWinnerDetails",
      "outputs": [
        {
          "internalType": "uint256",
          "name": "",
          "type": "uint256"
        },
        {
          "internalType": "string",
          "name": "",
          "type": "string"
        },
        {
          "internalType": "address",
          "name": "",
          "type": "address"
        }
      ],
      "stateMutability": "view",
      "type": "function",
      "constant": true
    },
    {
      "inputs": [],
      "name": "getAllCandidateVotes",
      "outputs": [
        {
          "internalType": "address[]",
          "name": "",
          "type": "address[]"
        },
        {
          "internalType": "uint256[]",
          "name": "",
          "type": "uint256[]"
        }
      ],
      "stateMutability": "view",
      "type": "function",
      "constant": true
    }
  ],
  "bytecode": "0x608060405234801561001057600080fd5b50336002806101000a81548173ffffffffffffffffffffffffffffffffffffffff021916908373ffffffffffffffffffffffffffffffffffffffff1602179055506000600260006101000a81548160ff0219169083151502179055506001600260016101000a81548160ff0219169083151502179055506131b2806100966000396000f3fe608060405234801561001057600080fd5b50600436106101375760003560e01c806370218b85116100b8578063ba71bef01161007c578063ba71bef0146102e2578063dc6232d314610312578063ec39335f14610330578063ef66ad1a14610350578063f7522a831461036f578063f851a4401461038d57610137565b806370218b851461024c5780638e9456851461026a578063b28d92ae14610288578063b956b192146102a6578063b9be3152146102c457610137565b80632a466ac7116100ff5780632a466ac7146101d05780635537a40d1461020057806359f784681461021c5780635f74bbde1461022657806362d73eb81461024257610137565b8063051802371461013c57806305ad45a41461015a578063122902a614610178578063163c3e881461019657806322b0d3df146101b2575b600080fd5b6101446103ab565b6040516101519190611e3b565b60405180910390f35b6101626103b7565b60405161016f9190611e3b565b60405180910390f35b6101806103c4565b60405161018d9190611ee6565b60405180910390f35b6101b060048036038101906101ab919061207d565b6104f2565b005b6101ba610769565b6040516101c79190612274565b60405180910390f35b6101ea60048036038101906101e591906122c2565b61097e565b6040516101f7919061237f565b60405180910390f35b61021a600480360381019061021591906123a1565b610b6f565b005b610224610ef5565b005b610240600480360381019061023b9190612440565b611051565b005b61024a611463565b005b6102546115bf565b604051610261919061252f565b60405180910390f35b61027261164d565b60405161027f919061252f565b60405180910390f35b6102906116db565b60405161029d919061252f565b60405180910390f35b6102ae611769565b6040516102bb9190612560565b60405180910390f35b6102cc611780565b6040516102d99190611e3b565b60405180910390f35b6102fc60048036038101906102f791906122c2565b61178c565b6040516103099190612274565b60405180910390f35b61031a6119a3565b6040516103279190612560565b60405180910390f35b6103386119ba565b6040516103479392919061258a565b60405180910390f35b610358611b53565b604051610366929190612677565b60405180910390f35b610377611d24565b6040516103849190611e3b565b60405180910390f35b610395611d31565b6040516103a291906126ae565b60405180910390f35b60018060000154905081565b6000600680549050905090565b606060011515600260009054906101000a900460ff1615151480156103fc575060011515600260019054906101000a900460ff161515145b1561043e576040518060400160405280601381526020017f566f74696e67206861732066696e69736865640000000000000000000000000081525090506104ef565b60011515600260009054906101000a900460ff161515148015610474575060001515600260019054906101000a900460ff161515145b156104b6576040518060400160405280601281526020017f566f74696e6720696e2050726f6772657373000000000000000000000000000081525090506104ef565b6040518060400160405280601281526020017f566f74696e67206e6f742d73746172746564000000000000000000000000000081525090505b90565b60001515600260009054906101000a900460ff16151514610548576040517f08c379a000000000000000000000000000000000000000000000000000000000815260040161053f9061273b565b60405180910390fd5b601281101561058c576040517f08c379a0000000000000000000000000000000000000000000000000000000008152600401610583906127a7565b60405180910390fd5b6105966000611d55565b60006105a26000611d6b565b90506000600760003373ffffffffffffffffffffffffffffffffffffffff1673ffffffffffffffffffffffffffffffffffffffff168152602001908152602001600020905060008160040154146105f857600080fd5b600181600401819055508481600101908161061391906129d3565b50338160020160006101000a81548173ffffffffffffffffffffffffffffffffffffffff021916908373ffffffffffffffffffffffffffffffffffffffff1602179055508281600301819055508181600001819055506000816006018190555060008160050160006101000a81548160ff021916908315150217905550838160070190816106a191906129d3565b506006339080600181540180825580915050600190039060005260206000200160009091909190916101000a81548173ffffffffffffffffffffffffffffffffffffffff021916908373ffffffffffffffffffffffffffffffffffffffff160217905550817f857b2adbd2e45ad29fb12de08119adc1e41e766d81a8aff715db0992077e10d586338685600401548660050160009054906101000a900460ff1687600601548b60405161075a9796959493929190612aa5565b60405180910390a25050505050565b610771611d79565b600760003373ffffffffffffffffffffffffffffffffffffffff1673ffffffffffffffffffffffffffffffffffffffff16815260200190815260200160002060405180610100016040529081600082015481526020016001820180546107d6906127f6565b80601f0160208091040260200160405190810160405280929190818152602001828054610802906127f6565b801561084f5780601f106108245761010080835404028352916020019161084f565b820191906000526020600020905b81548152906001019060200180831161083257829003601f168201915b505050505081526020016002820160009054906101000a900473ffffffffffffffffffffffffffffffffffffffff1673ffffffffffffffffffffffffffffffffffffffff1673ffffffffffffffffffffffffffffffffffffffff16815260200160038201548152602001600482015481526020016005820160009054906101000a900460ff16151515158152602001600682015481526020016007820180546108f7906127f6565b80601f0160208091040260200160405190810160405280929190818152602001828054610923906127f6565b80156109705780601f1061094557610100808354040283529160200191610970565b820191906000526020600020905b81548152906001019060200180831161095357829003601f168201915b505050505081525050905090565b610986611dd6565b600460008373ffffffffffffffffffffffffffffffffffffffff1673ffffffffffffffffffffffffffffffffffffffff1681526020019081526020016000206040518060c001604052908160008201548152602001600182015481526020016002820180546109f4906127f6565b80601f0160208091040260200160405190810160405280929190818152602001828054610a20906127f6565b8015610a6d5780601f10610a4257610100808354040283529160200191610a6d565b820191906000526020600020905b815481529060010190602001808311610a5057829003601f168201915b50505050508152602001600382015481526020016004820160009054906101000a900473ffffffffffffffffffffffffffffffffffffffff1673ffffffffffffffffffffffffffffffffffffffff1673ffffffffffffffffffffffffffffffffffffffff168152602001600582018054610ae6906127f6565b80601f0160208091040260200160405190810160405280929190818152602001828054610b12906127f6565b8015610b5f5780601f10610b3457610100808354040283529160200191610b5f565b820191906000526020600020905b815481529060010190602001808311610b4257829003601f168201915b5050505050815250509050919050565b3373ffffffffffffffffffffffffffffffffffffffff1660028054906101000a900473ffffffffffffffffffffffffffffffffffffffff1673ffffffffffffffffffffffffffffffffffffffff1614610bfd576040517f08c379a0000000000000000000000000000000000000000000000000000000008152600401610bf490612b94565b60405180910390fd5b60011515600260019054906101000a900460ff16151514610c53576040517f08c379a0000000000000000000000000000000000000000000000000000000008152600401610c4a90612c26565b60405180910390fd5b600073ffffffffffffffffffffffffffffffffffffffff16600460008673ffffffffffffffffffffffffffffffffffffffff1673ffffffffffffffffffffffffffffffffffffffff16815260200190815260200160002060040160009054906101000a900473ffffffffffffffffffffffffffffffffffffffff1673ffffffffffffffffffffffffffffffffffffffff1614610d24576040517f08c379a0000000000000000000000000000000000000000000000000000000008152600401610d1b90612cb8565b60405180910390fd5b6012831015610d68576040517f08c379a0000000000000000000000000000000000000000000000000000000008152600401610d5f90612d4a565b60405180910390fd5b610d726001611d55565b6000610d7e6001611d6b565b90506000600460008773ffffffffffffffffffffffffffffffffffffffff1673ffffffffffffffffffffffffffffffffffffffff168152602001908152602001600020905084816001018190555083816002019081610ddd91906129d3565b5081816000018190555060008160030181905550858160040160006101000a81548173ffffffffffffffffffffffffffffffffffffffff021916908373ffffffffffffffffffffffffffffffffffffffff16021790555082816005019081610e4591906129d3565b506003869080600181540180825580915050600190039060005260206000200160009091909190916101000a81548173ffffffffffffffffffffffffffffffffffffffff021916908373ffffffffffffffffffffffffffffffffffffffff160217905550817f0663dbecdfdc254a4cb464b55248eee8ea576540b2e7dfcc4834c5216636af52868684600301548a88604051610ee5959493929190612d6a565b60405180910390a2505050505050565b3373ffffffffffffffffffffffffffffffffffffffff1660028054906101000a900473ffffffffffffffffffffffffffffffffffffffff1673ffffffffffffffffffffffffffffffffffffffff1614610f83576040517f08c379a0000000000000000000000000000000000000000000000000000000008152600401610f7a90612b94565b60405180910390fd5b60011515600260009054906101000a900460ff161515148015610fb9575060001515600260019054906101000a900460ff161515145b610fc257600080fd5b6000600260006101000a81548160ff0219169083151502179055506001600260016101000a81548160ff0219169083151502179055507f3b33606474e3fbe42d10a18ef4c77e879c4d5dc0d6ca1417ee963a24878f606b600260009054906101000a900460ff16600260019054906101000a900460ff16604051611047929190612dcb565b60405180910390a1565b81816000805b60038054905081101561117d578373ffffffffffffffffffffffffffffffffffffffff166003828154811061108f5761108e612df4565b5b9060005260206000200160009054906101000a900473ffffffffffffffffffffffffffffffffffffffff1673ffffffffffffffffffffffffffffffffffffffff1614801561115c57508260046000600384815481106110f1576110f0612df4565b5b9060005260206000200160009054906101000a900473ffffffffffffffffffffffffffffffffffffffff1673ffffffffffffffffffffffffffffffffffffffff1673ffffffffffffffffffffffffffffffffffffffff16815260200190815260200160002060000154145b1561116a576001915061117d565b808061117590612e52565b915050611057565b50806111be576040517f08c379a00000000000000000000000000000000000000000000000000000000081526004016111b590612ee6565b60405180910390fd5b6000600760003373ffffffffffffffffffffffffffffffffffffffff1673ffffffffffffffffffffffffffffffffffffffff16815260200190815260200160002090508060050160009054906101000a900460ff1615611253576040517f08c379a000000000000000000000000000000000000000000000000000000000815260040161124a90612f52565b60405180910390fd5b60011515600260009054906101000a900460ff161515146112a9576040517f08c379a00000000000000000000000000000000000000000000000000000000081526004016112a090612fe4565b60405180910390fd5b60008160040154036112f0576040517f08c379a00000000000000000000000000000000000000000000000000000000081526004016112e790613050565b60405180910390fd5b6000600460008873ffffffffffffffffffffffffffffffffffffffff1673ffffffffffffffffffffffffffffffffffffffff1681526020019081526020016000206000015403611375576040517f08c379a000000000000000000000000000000000000000000000000000000000815260040161136c906130bc565b60405180910390fd5b60018160050160006101000a81548160ff0219169083151502179055508481600601819055506005339080600181540180825580915050600190039060005260206000200160009091909190916101000a81548173ffffffffffffffffffffffffffffffffffffffff021916908373ffffffffffffffffffffffffffffffffffffffff1602179055508060040154600460008873ffffffffffffffffffffffffffffffffffffffff1673ffffffffffffffffffffffffffffffffffffffff168152602001908152602001600020600301600082825461145491906130dc565b92505081905550505050505050565b60028054906101000a900473ffffffffffffffffffffffffffffffffffffffff1673ffffffffffffffffffffffffffffffffffffffff163373ffffffffffffffffffffffffffffffffffffffff16146114f1576040517f08c379a00000000000000000000000000000000000000000000000000000000081526004016114e89061315c565b60405180910390fd5b60001515600260009054906101000a900460ff161515148015611527575060011515600260019054906101000a900460ff161515145b61153057600080fd5b6001600260006101000a81548160ff0219169083151502179055506000600260016101000a81548160ff0219169083151502179055507f3b33606474e3fbe42d10a18ef4c77e879c4d5dc0d6ca1417ee963a24878f606b600260009054906101000a900460ff16600260019054906101000a900460ff166040516115b5929190612dcb565b60405180910390a1565b6060600380548060200260200160405190810160405280929190818152602001828054801561164357602002820191906000526020600020905b8160009054906101000a900473ffffffffffffffffffffffffffffffffffffffff1673ffffffffffffffffffffffffffffffffffffffff16815260200190600101908083116115f9575b5050505050905090565b606060058054806020026020016040519081016040528092919081815260200182805480156116d157602002820191906000526020600020905b8160009054906101000a900473ffffffffffffffffffffffffffffffffffffffff1673ffffffffffffffffffffffffffffffffffffffff1681526020019060010190808311611687575b5050505050905090565b6060600680548060200260200160405190810160405280929190818152602001828054801561175f57602002820191906000526020600020905b8160009054906101000a900473ffffffffffffffffffffffffffffffffffffffff1673ffffffffffffffffffffffffffffffffffffffff1681526020019060010190808311611715575b5050505050905090565b6000600260019054906101000a900460ff16905090565b60008060000154905081565b611794611d79565b600760008373ffffffffffffffffffffffffffffffffffffffff1673ffffffffffffffffffffffffffffffffffffffff16815260200190815260200160002060405180610100016040529081600082015481526020016001820180546117f9906127f6565b80601f0160208091040260200160405190810160405280929190818152602001828054611825906127f6565b80156118725780601f1061184757610100808354040283529160200191611872565b820191906000526020600020905b81548152906001019060200180831161185557829003601f168201915b505050505081526020016002820160009054906101000a900473ffffffffffffffffffffffffffffffffffffffff1673ffffffffffffffffffffffffffffffffffffffff1673ffffffffffffffffffffffffffffffffffffffff16815260200160038201548152602001600482015481526020016005820160009054906101000a900460ff161515151581526020016006820154815260200160078201805461191a906127f6565b80601f0160208091040260200160405190810160405280929190818152602001828054611946906127f6565b80156119935780601f1061196857610100808354040283529160200191611993565b820191906000526020600020905b81548152906001019060200180831161197657829003601f168201915b5050505050815250509050919050565b6000600260009054906101000a900460ff16905090565b60006060600080600090506060600080600090505b600380549050811015611b41576000600382815481106119f2576119f1612df4565b5b9060005260206000200160009054906101000a900473ffffffffffffffffffffffffffffffffffffffff1690506000600460008373ffffffffffffffffffffffffffffffffffffffff1673ffffffffffffffffffffffffffffffffffffffff16815260200190815260200160002090508581600301541115611b2c5780600301549550806002018054611a84906127f6565b80601f0160208091040260200160405190810160405280929190818152602001828054611ab0906127f6565b8015611afd5780601f10611ad257610100808354040283529160200191611afd565b820191906000526020600020905b815481529060010190602001808311611ae057829003601f168201915b505050505094508060040160009054906101000a900473ffffffffffffffffffffffffffffffffffffffff1693505b50508080611b3990612e52565b9150506119cf565b50828282955095509550505050909192565b606080600060038054905067ffffffffffffffff811115611b7757611b76611f26565b5b604051908082528060200260200182016040528015611ba55781602001602082028036833780820191505090505b509050600060038054905067ffffffffffffffff811115611bc957611bc8611f26565b5b604051908082528060200260200182016040528015611bf75781602001602082028036833780820191505090505b50905060005b600380549050811015611d1757600060038281548110611c2057611c1f612df4565b5b9060005260206000200160009054906101000a900473ffffffffffffffffffffffffffffffffffffffff1690506000600460008373ffffffffffffffffffffffffffffffffffffffff1673ffffffffffffffffffffffffffffffffffffffff168152602001908152602001600020905081858481518110611ca457611ca3612df4565b5b602002602001019073ffffffffffffffffffffffffffffffffffffffff16908173ffffffffffffffffffffffffffffffffffffffff16815250508060030154848481518110611cf657611cf5612df4565b5b60200260200101818152505050508080611d0f90612e52565b915050611bfd565b5081819350935050509091565b6000600380549050905090565b60028054906101000a900473ffffffffffffffffffffffffffffffffffffffff1681565b6001816000016000828254019250508190555050565b600081600001549050919050565b6040518061010001604052806000815260200160608152602001600073ffffffffffffffffffffffffffffffffffffffff168152602001600081526020016000815260200160001515815260200160008152602001606081525090565b6040518060c0016040528060008152602001600081526020016060815260200160008152602001600073ffffffffffffffffffffffffffffffffffffffff168152602001606081525090565b6000819050919050565b611e3581611e22565b82525050565b6000602082019050611e506000830184611e2c565b92915050565b600081519050919050565b600082825260208201905092915050565b60005b83811015611e90578082015181840152602081019050611e75565b60008484015250505050565b6000601f19601f8301169050919050565b6000611eb882611e56565b611ec28185611e61565b9350611ed2818560208601611e72565b611edb81611e9c565b840191505092915050565b60006020820190508181036000830152611f008184611ead565b905092915050565b6000604051905090565b600080fd5b600080fd5b600080fd5b600080fd5b7f4e487b7100000000000000000000000000000000000000000000000000000000600052604160045260246000fd5b611f5e82611e9c565b810181811067ffffffffffffffff82111715611f7d57611f7c611f26565b5b80604052505050565b6000611f90611f08565b9050611f9c8282611f55565b919050565b600067ffffffffffffffff821115611fbc57611fbb611f26565b5b611fc582611e9c565b9050602081019050919050565b82818337600083830152505050565b6000611ff4611fef84611fa1565b611f86565b9050828152602081018484840111156120105761200f611f21565b5b61201b848285611fd2565b509392505050565b600082601f83011261203857612037611f1c565b5b8135612048848260208601611fe1565b91505092915050565b61205a81611e22565b811461206557600080fd5b50565b60008135905061207781612051565b92915050565b60008060006060848603121561209657612095611f12565b5b600084013567ffffffffffffffff8111156120b4576120b3611f17565b5b6120c086828701612023565b935050602084013567ffffffffffffffff8111156120e1576120e0611f17565b5b6120ed86828701612023565b92505060406120fe86828701612068565b9150509250925092565b61211181611e22565b82525050565b600082825260208201905092915050565b600061213382611e56565b61213d8185612117565b935061214d818560208601611e72565b61215681611e9c565b840191505092915050565b600073ffffffffffffffffffffffffffffffffffffffff82169050919050565b600061218c82612161565b9050919050565b61219c81612181565b82525050565b60008115159050919050565b6121b7816121a2565b82525050565b6000610100830160008301516121d66000860182612108565b50602083015184820360208601526121ee8282612128565b91505060408301516122036040860182612193565b5060608301516122166060860182612108565b5060808301516122296080860182612108565b5060a083015161223c60a08601826121ae565b5060c083015161224f60c0860182612108565b5060e083015184820360e08601526122678282612128565b9150508091505092915050565b6000602082019050818103600083015261228e81846121bd565b905092915050565b61229f81612181565b81146122aa57600080fd5b50565b6000813590506122bc81612296565b92915050565b6000602082840312156122d8576122d7611f12565b5b60006122e6848285016122ad565b91505092915050565b600060c0830160008301516123076000860182612108565b50602083015161231a6020860182612108565b50604083015184820360408601526123328282612128565b91505060608301516123476060860182612108565b50608083015161235a6080860182612193565b5060a083015184820360a08601526123728282612128565b9150508091505092915050565b6000602082019050818103600083015261239981846122ef565b905092915050565b600080600080608085870312156123bb576123ba611f12565b5b60006123c9878288016122ad565b94505060206123da87828801612068565b935050604085013567ffffffffffffffff8111156123fb576123fa611f17565b5b61240787828801612023565b925050606085013567ffffffffffffffff81111561242857612427611f17565b5b61243487828801612023565b91505092959194509250565b6000806040838503121561245757612456611f12565b5b6000612465858286016122ad565b925050602061247685828601612068565b9150509250929050565b600081519050919050565b600082825260208201905092915050565b6000819050602082019050919050565b60006124b88383612193565b60208301905092915050565b6000602082019050919050565b60006124dc82612480565b6124e6818561248b565b93506124f18361249c565b8060005b8381101561252257815161250988826124ac565b9750612514836124c4565b9250506001810190506124f5565b5085935050505092915050565b6000602082019050818103600083015261254981846124d1565b905092915050565b61255a816121a2565b82525050565b60006020820190506125756000830184612551565b92915050565b61258481612181565b82525050565b600060608201905061259f6000830186611e2c565b81810360208301526125b18185611ead565b90506125c0604083018461257b565b949350505050565b600081519050919050565b600082825260208201905092915050565b6000819050602082019050919050565b60006126008383612108565b60208301905092915050565b6000602082019050919050565b6000612624826125c8565b61262e81856125d3565b9350612639836125e4565b8060005b8381101561266a57815161265188826125f4565b975061265c8361260c565b92505060018101905061263d565b5085935050505092915050565b6000604082019050818103600083015261269181856124d1565b905081810360208301526126a58184612619565b90509392505050565b60006020820190506126c3600083018461257b565b92915050565b7f456c656374696f6e20696e2070726f67726573732c205269676874207265766f60008201527f6b65642100000000000000000000000000000000000000000000000000000000602082015250565b6000612725602483611e61565b9150612730826126c9565b604082019050919050565b6000602082019050818103600083015261275481612718565b9050919050565b7f4f70732120596f752061726520756e6465726167650000000000000000000000600082015250565b6000612791601583611e61565b915061279c8261275b565b602082019050919050565b600060208201905081810360008301526127c081612784565b9050919050565b7f4e487b7100000000000000000000000000000000000000000000000000000000600052602260045260246000fd5b6000600282049050600182168061280e57607f821691505b602082108103612821576128206127c7565b5b50919050565b60008190508160005260206000209050919050565b60006020601f8301049050919050565b600082821b905092915050565b6000600883026128897fffffffffffffffffffffffffffffffffffffffffffffffffffffffffffffffff8261284c565b612893868361284c565b95508019841693508086168417925050509392505050565b6000819050919050565b60006128d06128cb6128c684611e22565b6128ab565b611e22565b9050919050565b6000819050919050565b6128ea836128b5565b6128fe6128f6826128d7565b848454612859565b825550505050565b600090565b612913612906565b61291e8184846128e1565b505050565b5b818110156129425761293760008261290b565b600181019050612924565b5050565b601f8211156129875761295881612827565b6129618461283c565b81016020851015612970578190505b61298461297c8561283c565b830182612923565b50505b505050565b600082821c905092915050565b60006129aa6000198460080261298c565b1980831691505092915050565b60006129c38383612999565b9150826002028217905092915050565b6129dc82611e56565b67ffffffffffffffff8111156129f5576129f4611f26565b5b6129ff82546127f6565b612a0a828285612946565b600060209050601f831160018114612a3d5760008415612a2b578287015190505b612a3585826129b7565b865550612a9d565b601f198416612a4b86612827565b60005b82811015612a7357848901518255600182019150602085019450602081019050612a4e565b86831015612a905784890151612a8c601f891682612999565b8355505b6001600288020188555050505b505050505050565b600060e0820190508181036000830152612abf818a611ead565b9050612ace602083018961257b565b612adb6040830188611e2c565b612ae86060830187611e2c565b612af56080830186612551565b612b0260a0830185611e2c565b81810360c0830152612b148184611ead565b905098975050505050505050565b7f5468697320697320616e2061646d696e2066756e6374696f6e2c20506c65617360008201527f6520436f6e746163742061646d696e0000000000000000000000000000000000602082015250565b6000612b7e602f83611e61565b9150612b8982612b22565b604082019050919050565b60006020820190508181036000830152612bad81612b71565b9050919050565b7f596f752063616e206e6f74206164642063616e646964617465207768656e206560008201527f6c656374696f6e20697320696e2070726f677265737300000000000000000000602082015250565b6000612c10603683611e61565b9150612c1b82612bb4565b604082019050919050565b60006020820190508181036000830152612c3f81612c03565b9050919050565b7f43616e64696461746520776974682074686973206164647265737320616c726560008201527f6164792065786973747300000000000000000000000000000000000000000000602082015250565b6000612ca2602a83611e61565b9150612cad82612c46565b604082019050919050565b60006020820190508181036000830152612cd181612c95565b9050919050565b7f4f70732120796f7520617265206e6f7420656c696769626c6520746f2062652060008201527f612043616e646964617465000000000000000000000000000000000000000000602082015250565b6000612d34602b83611e61565b9150612d3f82612cd8565b604082019050919050565b60006020820190508181036000830152612d6381612d27565b9050919050565b600060a082019050612d7f6000830188611e2c565b8181036020830152612d918187611ead565b9050612da06040830186611e2c565b612dad606083018561257b565b8181036080830152612dbf8184611ead565b90509695505050505050565b6000604082019050612de06000830185612551565b612ded6020830184612551565b9392505050565b7f4e487b7100000000000000000000000000000000000000000000000000000000600052603260045260246000fd5b7f4e487b7100000000000000000000000000000000000000000000000000000000600052601160045260246000fd5b6000612e5d82611e22565b91507fffffffffffffffffffffffffffffffffffffffffffffffffffffffffffffffff8203612e8f57612e8e612e23565b5b600182019050919050565b7f496e76616c69642063616e646964617465206f7220766f746520494400000000600082015250565b6000612ed0601c83611e61565b9150612edb82612e9a565b602082019050919050565b60006020820190508181036000830152612eff81612ec3565b9050919050565b7f596f75206861766520616c726561647920766f74656400000000000000000000600082015250565b6000612f3c601683611e61565b9150612f4782612f06565b602082019050919050565b60006020820190508181036000830152612f6b81612f2f565b9050919050565b7f596f752063616e6e6f7420766f7465206e6f772c20776169742074696c6c207460008201527f686520706f6c6c206973206f70656e656420666f7220766f74696e6700000000602082015250565b6000612fce603c83611e61565b9150612fd982612f72565b604082019050919050565b60006020820190508181036000830152612ffd81612fc1565b9050919050565b7f796f752068617665206e6f20726967687420746f20766f746500000000000000600082015250565b600061303a601983611e61565b915061304582613004565b602082019050919050565b600060208201905081810360008301526130698161302d565b9050919050565b7f496e76616c69642063616e646964617465206164647265737300000000000000600082015250565b60006130a6601983611e61565b91506130b182613070565b602082019050919050565b600060208201905081810360008301526130d581613099565b9050919050565b60006130e782611e22565b91506130f283611e22565b925082820190508082111561310a57613109612e23565b5b92915050565b7f4f6e6c792041646d696e2063616e20737461727420456c656374696f6e000000600082015250565b6000613146601d83611e61565b915061315182613110565b602082019050919050565b6000602082019050818103600083015261317581613139565b905091905056fea2646970667358221220daf45af08e5e94850a7ee2dab03a6c6cdc3bf8b2981245de2d16319a0817d91264736f6c63430008110033",
  "immutableReferences": {},
  "source": "//SPDX-License-Identifier: UNLICENSED\r\n\r\npragma solidity ^0.8.0;\r\n\r\n// Imports the Counters.sol file from the OpenZeppelin library\r\n\r\nimport \"@openzeppelin/contracts/utils/Counters.sol\";\r\n\r\n// Defines the Voting contract\r\ncontract Voting {\r\n    // Declares that the Counters library will be used for the Counter data type\r\n    using Counters for Counters.Counter;\r\n\r\n    // Public variables for counting the number of voters and proposals\r\n    Counters.Counter public _voterId;\r\n    Counters.Counter public _id;\r\n\r\n    // Boolean variables used to keep track of the election status\r\n    bool started;\r\n    bool ended;\r\n\r\n    /*<---------------------Election Status---------------->*/\r\n    // Constructor function - sets the admin address and initializes the election status variables\r\n\r\n    constructor() {\r\n        admin = msg.sender; // msg.sender is the address of the contract creator\r\n        started = false;\r\n        ended = true;\r\n    }\r\n\r\n    // Event declaration - emits when the election status changes\r\n\r\n    event electiontime(bool started, bool ended);\r\n\r\n    // Function to get the current value of started\r\n    function getStartedValue() public view returns (bool) {\r\n        return started;\r\n    }\r\n\r\n    // Function to get the current value of ended\r\n    function getEndedValue() public view returns (bool) {\r\n        return ended;\r\n    }\r\n\r\n    // Address variable for storing the contract admin\r\n    address public admin;\r\n\r\n    // Modifier function - restricts access to admin-only functions\r\n    modifier onlyAdmin() {\r\n        require(\r\n            admin == msg.sender,\r\n            \"This is an admin function, Please Contact admin\"\r\n        );\r\n        _;\r\n    }\r\n\r\n    // Function to end the election - can only be called by the admin\r\n    function endElection() public onlyAdmin {\r\n        // Ensure that the election is in progress\r\n        require(started == true && ended == false);\r\n\r\n        // Update the election status\r\n\r\n        started = false;\r\n        ended = true;\r\n\r\n        // Emit the electiontime event with the updated status\r\n        emit electiontime(started, ended);\r\n    }\r\n\r\n    // Function to start the election - can only be called by the admin\r\n    function startElection() public {\r\n        // Ensure that the caller is the admin and that the election has not yet started\r\n        require(msg.sender == admin, \"Only Admin can start Election\");\r\n        require(started == false && ended == true);\r\n\r\n        // Update the election status\r\n        started = true;\r\n        ended = false;\r\n\r\n        // Emit the electiontime event with the updated status\r\n        emit electiontime(started, ended);\r\n    }\r\n\r\n    // Function to get the current election status as a string\r\n    function getElectionStatus() public view returns (string memory) {\r\n        if (started == true && ended == true) {\r\n            return \"Voting has finished\";\r\n        }\r\n\r\n        if (started == true && ended == false) {\r\n            return \"Voting in Progress\";\r\n        }\r\n\r\n        return \"Voting not-started\";\r\n    }\r\n\r\n    /* ===========================================\r\n       ==============Candidate Details============\r\n       =========================================== */\r\n\r\n    // Struct to store information about a candidate\r\n\r\n    struct CandidateStruct {\r\n        uint256 id;\r\n        uint256 age;\r\n        string name;\r\n        uint256 voteCount;\r\n        address _address;\r\n        string ipfs;\r\n    }\r\n\r\n    // Event that is emitted when a new candidate is created\r\n    event CreateCandidate(\r\n        uint256 indexed id,\r\n        uint256 age,\r\n        string name,\r\n        uint256 voteCount,\r\n        address _address,\r\n        string ipfs\r\n    );\r\n\r\n    // Array to store the addresses of all candidates\r\n    address[] private candidateAddress;\r\n    // Mapping to store information about each candidate, keyed by their address\r\n    mapping(address => CandidateStruct) private candidates;\r\n\r\n    //<----------------voters details----------->\r\n\r\n    // Array to store the addresses of all voters who have cast a vote\r\n    address[] private votedVoters;\r\n    // Array to store the addresses of all voters\r\n    address[] private votersAddress;\r\n    // Mapping to store information about each voter, keyed by their address\r\n    mapping(address => VoterStruct) private voters;\r\n\r\n    // Struct to store information about a voter\r\n    struct VoterStruct {\r\n        uint256 voter_voterId;\r\n        string voter_name;\r\n        address voter_address;\r\n        uint256 voter_age;\r\n        uint256 voter_allowed;\r\n        bool voter_voted;\r\n        uint256 voter_vote;\r\n        string voter_ipfs;\r\n    }\r\n\r\n    // Event that is emitted when a new voter is created\r\n    event CreatedVoter(\r\n        uint256 indexed voter_voterId,\r\n        string voter_name,\r\n        address voter_address,\r\n        uint256 voter_age,\r\n        uint256 voter_allowed,\r\n        bool voter_voted,\r\n        uint256 voter_vote,\r\n        string voter_ipfs\r\n    );\r\n\r\n    // This function allows an admin to add a new candidate to the election.\r\n    // It takes in the candidate's Ethereum address, age, name, and IPFS hash.\r\n    function addCandidate(\r\n        address _address,\r\n        uint256 _age,\r\n        string memory _name,\r\n        string memory _ipfs\r\n    ) public onlyAdmin {\r\n        // Check if the election has ended before adding a new candidate.\r\n        require(\r\n            ended == true,\r\n            \"You can not add candidate when election is in progress\"\r\n        );\r\n        // Check if a candidate with the given address already exists.\r\n        require(\r\n            candidates[_address]._address == address(0),\r\n            \"Candidate with this address already exists\"\r\n        );\r\n        // Check if the candidate's age is at least 18.\r\n        require(_age >= 18, \"Ops! you are not eligible to be a Candidate\");\r\n\r\n        // Increment the ID counter and assign the new ID to the candidate.\r\n        _id.increment();\r\n        uint256 idNumber = _id.current();\r\n\r\n        // Create a new CandidateStruct and set its attributes.\r\n        CandidateStruct storage candidate = candidates[_address];\r\n\r\n        candidate.age = _age;\r\n        candidate.name = _name;\r\n        candidate.id = idNumber;\r\n        candidate.voteCount = 0;\r\n        candidate._address = _address;\r\n        candidate.ipfs = _ipfs;\r\n\r\n        // Add the candidate's Ethereum address to an array of candidate addresses.\r\n        candidateAddress.push(_address);\r\n\r\n        // Emit an event to notify the client of the new candidate's creation.\r\n        emit CreateCandidate(\r\n            idNumber,\r\n            _age,\r\n            _name,\r\n            candidate.voteCount,\r\n            _address,\r\n            _ipfs\r\n        );\r\n    }\r\n\r\n    // This function returns an array of all candidate addresses.\r\n    function getCandidate() public view returns (address[] memory) {\r\n        return candidateAddress;\r\n    }\r\n\r\n    // This function returns the length of the candidateAddress array.\r\n    function getCandidateLength() public view returns (uint256) {\r\n        return candidateAddress.length;\r\n    }\r\n\r\n    // This function takes in a candidate's Ethereum address and returns their candidate data.\r\n    function getCandidateData(address _address)\r\n        public\r\n        view\r\n        returns (CandidateStruct memory)\r\n    {\r\n        return (candidates[_address]);\r\n    }\r\n\r\n    // This function allows a user to add themselves as a voter.\r\n    // It takes in the voter's name, IPFS hash, and age.\r\n    function Addvoter(\r\n        string memory _name,\r\n        string memory _ipfs,\r\n        uint256 _age\r\n    ) public {\r\n        // Check if the election has started before allowing a new voter.\r\n        require(started == false, \"Election in progress, Right revoked!\");\r\n        // Check if the voter's age is at least 18.\r\n        require(_age >= 18, \"Ops! You are underage\");\r\n\r\n        // Increment the ID counter and assign the new ID to the voter.\r\n        _voterId.increment();\r\n\r\n        uint256 idNumber = _voterId.current();\r\n\r\n        // Create a new VoterStruct and set its attributes.\r\n        VoterStruct storage voter = voters[msg.sender];\r\n        require(voter.voter_allowed == 0); // Check if the voter already exists.\r\n\r\n        voter.voter_allowed = 1;\r\n        voter.voter_name = _name;\r\n        voter.voter_address = msg.sender;\r\n        voter.voter_age = _age;\r\n        voter.voter_voterId = idNumber;\r\n        voter.voter_vote = 0;\r\n        voter.voter_voted = false;\r\n        voter.voter_ipfs = _ipfs;\r\n\r\n        // Add the voter's Ethereum address to an array of voter addresses.\r\n        votersAddress.push(msg.sender);\r\n\r\n        // Emit an event to notify the client of the new voter's creation.\r\n        emit CreatedVoter(\r\n            idNumber,\r\n            _name,\r\n            msg.sender,\r\n            _age,\r\n            voter.voter_allowed,\r\n            voter.voter_voted,\r\n            voter.voter_vote,\r\n            _ipfs\r\n        );\r\n    }\r\n\r\n    // This modifier checks if the candidate address and vote ID exist\r\n    modifier voteIdExists(address _candidateAddress, uint256 _candidateVoteId) {\r\n        bool voteExists = false;\r\n        // iterate over all candidate addresses\r\n        for (uint256 i = 0; i < candidateAddress.length; i++) {\r\n            // check if the candidate address and vote ID match\r\n            if (\r\n                candidateAddress[i] == _candidateAddress &&\r\n                candidates[candidateAddress[i]].id == _candidateVoteId\r\n            ) {\r\n                // set the flag to true and break the loop\r\n                voteExists = true;\r\n                break;\r\n            }\r\n        }\r\n        // require that the flag is true\r\n        require(voteExists, \"Invalid candidate or vote ID\");\r\n        _;\r\n    }\r\n\r\n    // this function allows a voter to cast a vote for a candidate\r\n    function vote(address _candidateAddress, uint256 _candidateVoteId)\r\n        public\r\n        voteIdExists(_candidateAddress, _candidateVoteId)\r\n    {\r\n        // retrieve the voter's information\r\n        VoterStruct storage voter = voters[msg.sender];\r\n\r\n        // require that the voter has not already voted\r\n        require(!voter.voter_voted, \"You have already voted\");\r\n\r\n        // require that the election has started\r\n        require(\r\n            started == true,\r\n            \"You cannot vote now, wait till the poll is opened for voting\"\r\n        );\r\n        // require that the voter is allowed to vote\r\n        require(voter.voter_allowed != 0, \"you have no right to vote\");\r\n        // require that the candidate address is valid\r\n        require(\r\n            candidates[_candidateAddress].id != 0,\r\n            \"Invalid candidate address\"\r\n        );\r\n        // set the voter's voted flag to true and update their vote\r\n        voter.voter_voted = true;\r\n        voter.voter_vote = _candidateVoteId;\r\n        // add the voter to the list of voted voters\r\n        votedVoters.push(msg.sender);\r\n\r\n        // increment the candidate's vote count by the number of votes the voter has\r\n\r\n        candidates[_candidateAddress].voteCount += voter.voter_allowed;\r\n    }\r\n\r\n    // Returns the number of voters\r\n    function getVoterLength() public view returns (uint256) {\r\n        return votersAddress.length;\r\n    }\r\n\r\n    // Returns the details of a specific voter\r\n    function getVoterDetails(address _address)\r\n        public\r\n        view\r\n        returns (VoterStruct memory)\r\n    {\r\n        return (voters[_address]);\r\n    }\r\n\r\n    // Returns a list of addresses for voters who have voted\r\n    function getVotedVoterList() public view returns (address[] memory) {\r\n        return votedVoters;\r\n    }\r\n\r\n    // Returns the details of the caller (current user)\r\n    function getVoterData() public view returns (VoterStruct memory) {\r\n        return (voters[msg.sender]);\r\n    }\r\n\r\n    // Returns a list of all the addresses for registered voters\r\n    function getVoterList() public view returns (address[] memory) {\r\n        return votersAddress;\r\n    }\r\n\r\n    /* This function retrieves the details of the candidate who received the maximum votes, including their vote count,\r\n name and address. It loops through all the candidate addresses, retrieves the candidate details, and stores the\r\n details of the candidate with the highest vote count. It then returns the details of the winner.\r\n   */\r\n    function getWinnerDetails()\r\n        public\r\n        view\r\n        returns (\r\n            uint256,\r\n            string memory,\r\n            address\r\n        )\r\n    {\r\n        uint256 maxVotes = 0;\r\n        string memory winnerName;\r\n        address winnerAddress;\r\n        for (uint256 i = 0; i < candidateAddress.length; i++) {\r\n            address candidateAddr = candidateAddress[i];\r\n            CandidateStruct storage candidate = candidates[candidateAddr];\r\n            if (candidate.voteCount > maxVotes) {\r\n                maxVotes = candidate.voteCount;\r\n                winnerName = candidate.name;\r\n                winnerAddress = candidate._address;\r\n            }\r\n        }\r\n        return (maxVotes, winnerName, winnerAddress);\r\n    }\r\n\r\n    // This function returns two arrays, one containing the addresses of all the candidates and the other containing\r\n    // their respective vote counts. It loops through all the candidate addresses, retrieves the candidate details,\r\n    // and stores their address and vote count in two separate arrays. It then returns both arrays.\r\n\r\n    function getAllCandidateVotes()\r\n        public\r\n        view\r\n        returns (address[] memory, uint256[] memory)\r\n    {\r\n        address[] memory candidateAddresses = new address[](\r\n            candidateAddress.length\r\n        );\r\n        uint256[] memory candidateVotes = new uint256[](\r\n            candidateAddress.length\r\n        );\r\n        for (uint256 i = 0; i < candidateAddress.length; i++) {\r\n            address candidateAddr = candidateAddress[i];\r\n            CandidateStruct storage candidate = candidates[candidateAddr];\r\n            candidateAddresses[i] = candidateAddr;\r\n            candidateVotes[i] = candidate.voteCount;\r\n        }\r\n        return (candidateAddresses, candidateVotes);\r\n    }\r\n}\r\n",
  "sourcePath": "C:\\Users\\LILLY\\projects\\EasyVote\\contracts\\Voting.sol",
  "compiler": {
    "name": "solc",
    "version": "0.8.17+commit.8df45f5f.Emscripten.clang"
  },
  "schemaVersion": "3.4.11",
  "updatedAt": "2023-02-23T19:14:12.312Z",
  "networkType": "ethereum",
  "devdoc": {
    "kind": "dev",
    "methods": {},
    "version": 1
  },
  "userdoc": {
    "kind": "user",
    "methods": {},
    "version": 1
  }
}